{
  "contractName": "BTCAPIConsumer",
  "abi": [
    {
      "inputs": [],
      "stateMutability": "nonpayable",
      "type": "constructor"
    },
    {
      "anonymous": false,
      "inputs": [
        {
          "indexed": true,
          "internalType": "bytes32",
          "name": "id",
          "type": "bytes32"
        }
      ],
      "name": "ChainlinkCancelled",
      "type": "event"
    },
    {
      "anonymous": false,
      "inputs": [
        {
          "indexed": true,
          "internalType": "bytes32",
          "name": "id",
          "type": "bytes32"
        }
      ],
      "name": "ChainlinkFulfilled",
      "type": "event"
    },
    {
      "anonymous": false,
      "inputs": [
        {
          "indexed": true,
          "internalType": "bytes32",
          "name": "id",
          "type": "bytes32"
        }
      ],
      "name": "ChainlinkRequested",
      "type": "event"
    },
    {
      "inputs": [],
      "name": "btcPrice",
      "outputs": [
        {
          "internalType": "uint256",
          "name": "",
          "type": "uint256"
        }
      ],
      "stateMutability": "view",
      "type": "function"
    },
    {
      "inputs": [],
      "name": "requestBTCPrice",
      "outputs": [
        {
          "internalType": "bytes32",
          "name": "reqID",
          "type": "bytes32"
        }
      ],
      "stateMutability": "nonpayable",
      "type": "function"
    },
    {
      "inputs": [
        {
          "internalType": "bytes32",
          "name": "_requestId",
          "type": "bytes32"
        },
        {
          "internalType": "uint256",
          "name": "_btcPrice",
          "type": "uint256"
        }
      ],
      "name": "fulfillBTC",
      "outputs": [],
      "stateMutability": "nonpayable",
      "type": "function"
    }
  ],
  "bytecode": "0x6080604052600160045534801561001557600080fd5b506100246100b460201b60201c565b73eccb8f881ce2552eda4115a162ffe2666b601c33600760006101000a81548173ffffffffffffffffffffffffffffffffffffffff021916908373ffffffffffffffffffffffffffffffffffffffff1602179055507f303339316136373062613865346132663830373530616366653635623063383960088190555067016345785d8a000060098190555061019d565b61015773c89bd4e1632d3a43cb03aaad5262cbe4038bc57173ffffffffffffffffffffffffffffffffffffffff166338cc48316040518163ffffffff1660e01b815260040160206040518083038186803b15801561011157600080fd5b505afa158015610125573d6000803e3d6000fd5b505050506040513d602081101561013b57600080fd5b810190808051906020019092919050505061015960201b60201c565b565b80600260006101000a81548173ffffffffffffffffffffffffffffffffffffffff021916908373ffffffffffffffffffffffffffffffffffffffff16021790555050565b610d7a806101ac6000396000f3fe608060405234801561001057600080fd5b50600436106100415760003560e01c8063a8ad52d114610046578063bda5757b14610064578063dcb0cfe514610082575b600080fd5b61004e6100ba565b6040518082815260200191505060405180910390f35b61006c6100c0565b6040518082815260200191505060405180910390f35b6100b86004803603604081101561009857600080fd5b810190808035906020019092919080359060200190929190505050610194565b005b60065481565b60006100ca610c58565b6100de6008543063dcb0cfe560e01b6102bb565b905061015f6040518060400160405280600481526020017f62617365000000000000000000000000000000000000000000000000000000008152506040518060400160405280600e81526020017f4254432f555344543a4358445846000000000000000000000000000000000000815250836102ec9092919063ffffffff16565b61018e600760009054906101000a900473ffffffffffffffffffffffffffffffffffffffff168260095461031f565b91505090565b816005600082815260200190815260200160002060009054906101000a900473ffffffffffffffffffffffffffffffffffffffff1673ffffffffffffffffffffffffffffffffffffffff163373ffffffffffffffffffffffffffffffffffffffff161461024c576040517f08c379a0000000000000000000000000000000000000000000000000000000008152600401808060200182810382526028815260200180610d1d6028913960400191505060405180910390fd5b6005600082815260200190815260200160002060006101000a81549073ffffffffffffffffffffffffffffffffffffffff0219169055807f7cc135e0cebb02c3480ae5d74d377283180a2601f8f644edf7987b009316c63a60405160405180910390a281600681905550505050565b6102c3610c58565b6102cb610c58565b6102e2858585846105d7909392919063ffffffff16565b9150509392505050565b61030382846080015161068790919063ffffffff16565b61031a81846080015161068790919063ffffffff16565b505050565b600030600454604051602001808373ffffffffffffffffffffffffffffffffffffffff1673ffffffffffffffffffffffffffffffffffffffff1660601b815260140182815260200192505050604051602081830303815290604052805190602001209050600454836060018181525050836005600083815260200190815260200160002060006101000a81548173ffffffffffffffffffffffffffffffffffffffff021916908373ffffffffffffffffffffffffffffffffffffffff160217905550807fb5e6e01e79f91267dc17b4e6314d5d4d03593d2ceee0fbb452b750bd70ea5af960405160405180910390a2600260009054906101000a900473ffffffffffffffffffffffffffffffffffffffff1673ffffffffffffffffffffffffffffffffffffffff16634000aea08584610457876106ac565b6040518463ffffffff1660e01b8152600401808473ffffffffffffffffffffffffffffffffffffffff1673ffffffffffffffffffffffffffffffffffffffff16815260200183815260200180602001828103825283818151815260200191508051906020019080838360005b838110156104de5780820151818401526020810190506104c3565b50505050905090810190601f16801561050b5780820380516001836020036101000a031916815260200191505b50945050505050602060405180830381600087803b15801561052c57600080fd5b505af1158015610540573d6000803e3d6000fd5b505050506040513d602081101561055657600080fd5b81019080805190602001909291905050506105bc576040517f08c379a0000000000000000000000000000000000000000000000000000000008152600401808060200182810382526023815260200180610cfa6023913960400191505060405180910390fd5b60016004600082825401925050819055508090509392505050565b6105df610c58565b6105ef85608001516101006108b3565b508385600001818152505082856020019073ffffffffffffffffffffffffffffffffffffffff16908173ffffffffffffffffffffffffffffffffffffffff16815250508185604001907bffffffffffffffffffffffffffffffffffffffffffffffffffffffff191690817bffffffffffffffffffffffffffffffffffffffffffffffffffffffff191681525050849050949350505050565b6106948260038351610907565b6106a78183610a4c90919063ffffffff16565b505050565b6060600360009054906101000a900473ffffffffffffffffffffffffffffffffffffffff1673ffffffffffffffffffffffffffffffffffffffff166340429946905060e01b60008084600001518560200151866040015187606001516001896080015160000151604051602401808973ffffffffffffffffffffffffffffffffffffffff1673ffffffffffffffffffffffffffffffffffffffff1681526020018881526020018781526020018673ffffffffffffffffffffffffffffffffffffffff1673ffffffffffffffffffffffffffffffffffffffff168152602001857bffffffffffffffffffffffffffffffffffffffffffffffffffffffff19167bffffffffffffffffffffffffffffffffffffffffffffffffffffffff1916815260200184815260200183815260200180602001828103825283818151815260200191508051906020019080838360005b838110156108165780820151818401526020810190506107fb565b50505050905090810190601f1680156108435780820380516001836020036101000a031916815260200191505b509950505050505050505050604051602081830303815290604052907bffffffffffffffffffffffffffffffffffffffffffffffffffffffff19166020820180517bffffffffffffffffffffffffffffffffffffffffffffffffffffffff83818316178352505050509050919050565b6108bb610cc5565b6000602083816108c757fe5b06146108e057602082816108d757fe5b06602003820191505b81836020018181525050604051808452600081528281016020016040525082905092915050565b601781116109345761092e8160058460ff16901b60ff161784610a6e90919063ffffffff16565b50610a47565b60ff811161097657610959601860058460ff16901b1784610a6e90919063ffffffff16565b5061097081600185610a8e9092919063ffffffff16565b50610a46565b61ffff81116109b95761099c601960058460ff16901b1784610a6e90919063ffffffff16565b506109b381600285610a8e9092919063ffffffff16565b50610a45565b63ffffffff81116109fe576109e1601a60058460ff16901b1784610a6e90919063ffffffff16565b506109f881600485610a8e9092919063ffffffff16565b50610a44565b67ffffffffffffffff8111610a4357610a2a601b60058460ff16901b1784610a6e90919063ffffffff16565b50610a4181600885610a8e9092919063ffffffff16565b505b5b5b5b5b505050565b610a54610cc5565b610a6683846000015151848551610ab0565b905092915050565b610a76610cc5565b610a868384600001515184610b69565b905092915050565b610a96610cc5565b610aa7848560000151518585610bb7565b90509392505050565b610ab8610cc5565b8251821115610ac657600080fd5b84602001518285011115610af157610af0856002610aea8860200151888701610c18565b02610c34565b5b600080865180518760208301019350808887011115610b105787860182525b60208701925050505b60208410610b3c5780518252602082019150602081019050602084039350610b19565b60006001856020036101000a03905080198251168184511681811785525050879350505050949350505050565b610b71610cc5565b83602001518310610b8e57610b8d846002866020015102610c34565b5b8351805160208583010184815381861415610baa576001820183525b5050508390509392505050565b610bbf610cc5565b84602001518483011115610bdd57610bdc85600286850102610c34565b5b60006001836101000a0390508551838682010185831982511617815281518588011115610c0a5784870182525b505085915050949350505050565b600081831115610c2a57829050610c2e565b8190505b92915050565b606082600001519050610c4783836108b3565b50610c528382610a4c565b50505050565b6040518060a0016040528060008019168152602001600073ffffffffffffffffffffffffffffffffffffffff16815260200160007bffffffffffffffffffffffffffffffffffffffffffffffffffffffff1916815260200160008152602001610cbf610cdf565b81525090565b604051806040016040528060608152602001600081525090565b60405180604001604052806060815260200160008152509056fe756e61626c6520746f207472616e73666572416e6443616c6c20746f206f7261636c65536f75726365206d75737420626520746865206f7261636c65206f66207468652072657175657374a26469706673582212200965bdbbaee36ec2db2b73797f9afe88c318a6bfe08415a1d05318b7abb44d9764736f6c63430006000033",
  "source": "pragma solidity ^0.6.0;\n\nimport \"@chainlink/contracts/src/v0.6/ChainlinkClient.sol\";\n\ncontract BTCAPIConsumer is ChainlinkClient{ \n    /*\n    parent: ChainlinkClient\n    */\n    uint256 public btcPrice; // price of btc\n\n    address private oracle;\n    bytes32 private jobId;\n    uint256 private fee;\n\n    constructor() public{\n        setPublicChainlinkToken();\n\n        oracle = 0xECcB8F881cE2552EdA4115a162ffE2666B601c33; // https://market.link/data-providers/eb5c92a8-6093-4657-9a68-a6d10719946e/integrations?network=1\n        jobId = \"0391a670ba8e4a2f80750acfe65b0c89\";\n        fee = .1 * 10**18; // fee of .1 LINK\n    }\n\n    function requestBTCPrice() public returns (bytes32 reqID){\n        Chainlink.Request memory req = buildChainlinkRequest(jobId, address(this), this.fulfillBTC.selector);\n        req.add(\"base\", \"BTC/USDT:CXDXF\");\n        \n        return sendChainlinkRequestTo(oracle, req, fee);\n    }\n\n    function fulfillBTC(bytes32 _requestId, uint256 _btcPrice) public recordChainlinkFulfillment(_requestId){\n        btcPrice = _btcPrice;\n    }\n}\ncontract cResToken{\n    /*\n    NEED TO MAKE:\n    - constructor\n    - total # of tokens setter\n    - total # of tokens reader */\n    function supply() public {\n        uint256 totalSupply = 1000000;\n    }\n}",
  "sourcePath": "/Users/kabirkapur/Desktop/cRes/contracts/cResToken.sol",
  "compiler": {
    "name": "solc",
    "version": "0.6.0+commit.26b70077.Emscripten.clang"
  },
  "schemaVersion": "3.4.1",
  "updatedAt": "2021-07-17T01:16:01.921Z",
  "devdoc": {
    "methods": {}
  },
  "userdoc": {
    "methods": {}
  }
}