{
  "contractName": "cResToken",
  "abi": [
    {
      "inputs": [],
      "name": "supply",
      "outputs": [],
      "stateMutability": "nonpayable",
      "type": "function"
    }
  ],
  "bytecode": "0x6080604052348015600f57600080fd5b50607680601d6000396000f3fe6080604052348015600f57600080fd5b506004361060285760003560e01c8063047fc9aa14602d575b600080fd5b60336035565b005b6000620f424090505056fea26469706673582212209bf060ba5adf789ea446215a790ab72211b58a192668e276c0b2fa8ad2b21c8264736f6c63430008000033",
  "immutableReferences": {},
  "source": "pragma solidity ^0.8.0;\n\nimport \"@chainlink/contracts/src/v0.8/ChainlinkClient.sol\";\n\ncontract cResToken{\n    /*\n    NEED TO MAKE:\n    - constructor\n    - total # of tokens setter\n    - total # of tokens reader */\n    function supply() public {\n        uint256 totalSupply = 1000000;\n    }\n}",
  "sourcePath": "/Users/kabirkapur/Desktop/cRes/contracts/cResToken.sol",
  "compiler": {
    "name": "solc",
    "version": "0.8.0+commit.c7dfd78e.Emscripten.clang"
  },
  "schemaVersion": "3.4.1",
  "updatedAt": "2021-07-17T00:17:50.063Z",
  "devdoc": {
    "kind": "dev",
    "methods": {},
    "version": 1
  },
  "userdoc": {
    "kind": "user",
    "methods": {},
    "version": 1
  }
}