{
  "contractName": "cResToken",
  "abi": [
    {
      "inputs": [],
      "stateMutability": "nonpayable",
      "type": "constructor"
    },
    {
      "anonymous": false,
      "inputs": [
        {
          "indexed": true,
          "internalType": "address",
          "name": "owner",
          "type": "address"
        },
        {
          "indexed": true,
          "internalType": "address",
          "name": "spender",
          "type": "address"
        },
        {
          "indexed": false,
          "internalType": "uint256",
          "name": "value",
          "type": "uint256"
        }
      ],
      "name": "Approval",
      "type": "event"
    },
    {
      "anonymous": false,
      "inputs": [
        {
          "indexed": true,
          "internalType": "address",
          "name": "from",
          "type": "address"
        },
        {
          "indexed": true,
          "internalType": "address",
          "name": "to",
          "type": "address"
        },
        {
          "indexed": false,
          "internalType": "uint256",
          "name": "value",
          "type": "uint256"
        }
      ],
      "name": "Transfer",
      "type": "event"
    },
    {
      "anonymous": false,
      "inputs": [
        {
          "indexed": false,
          "internalType": "uint256",
          "name": "date",
          "type": "uint256"
        },
        {
          "indexed": false,
          "internalType": "address",
          "name": "from",
          "type": "address"
        },
        {
          "indexed": false,
          "internalType": "address",
          "name": "to",
          "type": "address"
        },
        {
          "indexed": false,
          "internalType": "uint256",
          "name": "amount",
          "type": "uint256"
        }
      ],
      "name": "newTrade",
      "type": "event"
    },
    {
      "inputs": [
        {
          "internalType": "address",
          "name": "owner",
          "type": "address"
        },
        {
          "internalType": "address",
          "name": "spender",
          "type": "address"
        }
      ],
      "name": "allowance",
      "outputs": [
        {
          "internalType": "uint256",
          "name": "",
          "type": "uint256"
        }
      ],
      "stateMutability": "view",
      "type": "function",
      "constant": true
    },
    {
      "inputs": [
        {
          "internalType": "address",
          "name": "spender",
          "type": "address"
        },
        {
          "internalType": "uint256",
          "name": "amount",
          "type": "uint256"
        }
      ],
      "name": "approve",
      "outputs": [
        {
          "internalType": "bool",
          "name": "",
          "type": "bool"
        }
      ],
      "stateMutability": "nonpayable",
      "type": "function"
    },
    {
      "inputs": [
        {
          "internalType": "address",
          "name": "account",
          "type": "address"
        }
      ],
      "name": "balanceOf",
      "outputs": [
        {
          "internalType": "uint256",
          "name": "",
          "type": "uint256"
        }
      ],
      "stateMutability": "view",
      "type": "function",
      "constant": true
    },
    {
      "inputs": [],
      "name": "decimals",
      "outputs": [
        {
          "internalType": "uint8",
          "name": "",
          "type": "uint8"
        }
      ],
      "stateMutability": "view",
      "type": "function",
      "constant": true
    },
    {
      "inputs": [
        {
          "internalType": "address",
          "name": "spender",
          "type": "address"
        },
        {
          "internalType": "uint256",
          "name": "subtractedValue",
          "type": "uint256"
        }
      ],
      "name": "decreaseAllowance",
      "outputs": [
        {
          "internalType": "bool",
          "name": "",
          "type": "bool"
        }
      ],
      "stateMutability": "nonpayable",
      "type": "function"
    },
    {
      "inputs": [
        {
          "internalType": "address",
          "name": "spender",
          "type": "address"
        },
        {
          "internalType": "uint256",
          "name": "addedValue",
          "type": "uint256"
        }
      ],
      "name": "increaseAllowance",
      "outputs": [
        {
          "internalType": "bool",
          "name": "",
          "type": "bool"
        }
      ],
      "stateMutability": "nonpayable",
      "type": "function"
    },
    {
      "inputs": [],
      "name": "name",
      "outputs": [
        {
          "internalType": "string",
          "name": "",
          "type": "string"
        }
      ],
      "stateMutability": "view",
      "type": "function",
      "constant": true
    },
    {
      "inputs": [],
      "name": "symbol",
      "outputs": [
        {
          "internalType": "string",
          "name": "",
          "type": "string"
        }
      ],
      "stateMutability": "view",
      "type": "function",
      "constant": true
    },
    {
      "inputs": [],
      "name": "totalSupply",
      "outputs": [
        {
          "internalType": "uint256",
          "name": "",
          "type": "uint256"
        }
      ],
      "stateMutability": "view",
      "type": "function",
      "constant": true
    },
    {
      "inputs": [
        {
          "internalType": "address",
          "name": "recipient",
          "type": "address"
        },
        {
          "internalType": "uint256",
          "name": "amount",
          "type": "uint256"
        }
      ],
      "name": "transfer",
      "outputs": [
        {
          "internalType": "bool",
          "name": "",
          "type": "bool"
        }
      ],
      "stateMutability": "nonpayable",
      "type": "function"
    },
    {
      "inputs": [
        {
          "internalType": "address",
          "name": "sender",
          "type": "address"
        },
        {
          "internalType": "address",
          "name": "recipient",
          "type": "address"
        },
        {
          "internalType": "uint256",
          "name": "amount",
          "type": "uint256"
        }
      ],
      "name": "transferFrom",
      "outputs": [
        {
          "internalType": "bool",
          "name": "",
          "type": "bool"
        }
      ],
      "stateMutability": "nonpayable",
      "type": "function"
    },
    {
      "inputs": [
        {
          "internalType": "uint256",
          "name": "celoRatio",
          "type": "uint256"
        },
        {
          "internalType": "uint256",
          "name": "celoInReserve",
          "type": "uint256"
        },
        {
          "internalType": "uint256",
          "name": "totalInReserve",
          "type": "uint256"
        }
      ],
      "name": "spotPrice",
      "outputs": [
        {
          "internalType": "uint256",
          "name": "",
          "type": "uint256"
        },
        {
          "internalType": "uint256",
          "name": "",
          "type": "uint256"
        },
        {
          "internalType": "uint256",
          "name": "",
          "type": "uint256"
        }
      ],
      "stateMutability": "view",
      "type": "function",
      "constant": true
    },
    {
      "inputs": [],
      "name": "supply",
      "outputs": [
        {
          "internalType": "uint256",
          "name": "",
          "type": "uint256"
        }
      ],
      "stateMutability": "view",
      "type": "function",
      "constant": true
    }
  ],
  "bytecode": "0x60806040526127106005556040518060400160405280601281526020017f43656c6f205265736572766520546f6b656e0000000000000000000000000000815250600690805190602001906200005792919062000163565b506040518060400160405280600481526020017f635245530000000000000000000000000000000000000000000000000000000081525060079080519060200190620000a592919062000163565b50348015620000b357600080fd5b506040518060400160405280600981526020017f63524553546f6b656e00000000000000000000000000000000000000000000008152506040518060400160405280600481526020017f635245530000000000000000000000000000000000000000000000000000000081525081600390805190602001906200013892919062000163565b5080600490805190602001906200015192919062000163565b50505061271060058190555062000278565b828054620001719062000213565b90600052602060002090601f016020900481019282620001955760008555620001e1565b82601f10620001b057805160ff1916838001178555620001e1565b82800160010185558215620001e1579182015b82811115620001e0578251825591602001919060010190620001c3565b5b509050620001f09190620001f4565b5090565b5b808211156200020f576000816000905550600101620001f5565b5090565b600060028204905060018216806200022c57607f821691505b6020821081141562000243576200024262000249565b5b50919050565b7f4e487b7100000000000000000000000000000000000000000000000000000000600052602260045260246000fd5b61145e80620002886000396000f3fe608060405234801561001057600080fd5b50600436106100cf5760003560e01c8063395093511161008c578063a457c2d711610066578063a457c2d71461022a578063a9059cbb1461025a578063d5f638c81461028a578063dd62ed3e146102bc576100cf565b806339509351146101ac57806370a08231146101dc57806395d89b411461020c576100cf565b8063047fc9aa146100d457806306fdde03146100f2578063095ea7b31461011057806318160ddd1461014057806323b872dd1461015e578063313ce5671461018e575b600080fd5b6100dc6102ec565b6040516100e991906111f2565b60405180910390f35b6100fa6102f6565b60405161010791906110f0565b60405180910390f35b61012a60048036038101906101259190610d1a565b610388565b60405161013791906110d5565b60405180910390f35b6101486103a6565b60405161015591906111f2565b60405180910390f35b61017860048036038101906101739190610ccb565b6103b0565b60405161018591906110d5565b60405180910390f35b6101966104a8565b6040516101a39190611244565b60405180910390f35b6101c660048036038101906101c19190610d1a565b6104b1565b6040516101d391906110d5565b60405180910390f35b6101f660048036038101906101f19190610c66565b61055d565b60405161020391906111f2565b60405180910390f35b6102146105a5565b60405161022191906110f0565b60405180910390f35b610244600480360381019061023f9190610d1a565b610637565b60405161025191906110d5565b60405180910390f35b610274600480360381019061026f9190610d1a565b610722565b60405161028191906110d5565b60405180910390f35b6102a4600480360381019061029f9190610d56565b610740565b6040516102b39392919061120d565b60405180910390f35b6102d660048036038101906102d19190610c8f565b610757565b6040516102e391906111f2565b60405180910390f35b6000600554905090565b60606003805461030590611359565b80601f016020809104026020016040519081016040528092919081815260200182805461033190611359565b801561037e5780601f106103535761010080835404028352916020019161037e565b820191906000526020600020905b81548152906001019060200180831161036157829003601f168201915b5050505050905090565b600061039c6103956107de565b84846107e6565b6001905092915050565b6000600254905090565b60006103bd8484846109b1565b6000600160008673ffffffffffffffffffffffffffffffffffffffff1673ffffffffffffffffffffffffffffffffffffffff16815260200190815260200160002060006104086107de565b73ffffffffffffffffffffffffffffffffffffffff1673ffffffffffffffffffffffffffffffffffffffff16815260200190815260200160002054905082811015610488576040517f08c379a000000000000000000000000000000000000000000000000000000000815260040161047f90611172565b60405180910390fd5b61049c856104946107de565b8584036107e6565b60019150509392505050565b60006012905090565b60006105536104be6107de565b8484600160006104cc6107de565b73ffffffffffffffffffffffffffffffffffffffff1673ffffffffffffffffffffffffffffffffffffffff16815260200190815260200160002060008873ffffffffffffffffffffffffffffffffffffffff1673ffffffffffffffffffffffffffffffffffffffff1681526020019081526020016000205461054e919061127b565b6107e6565b6001905092915050565b60008060008373ffffffffffffffffffffffffffffffffffffffff1673ffffffffffffffffffffffffffffffffffffffff168152602001908152602001600020549050919050565b6060600480546105b490611359565b80601f01602080910402602001604051908101604052809291908181526020018280546105e090611359565b801561062d5780601f106106025761010080835404028352916020019161062d565b820191906000526020600020905b81548152906001019060200180831161061057829003601f168201915b5050505050905090565b600080600160006106466107de565b73ffffffffffffffffffffffffffffffffffffffff1673ffffffffffffffffffffffffffffffffffffffff16815260200190815260200160002060008573ffffffffffffffffffffffffffffffffffffffff1673ffffffffffffffffffffffffffffffffffffffff16815260200190815260200160002054905082811015610703576040517f08c379a00000000000000000000000000000000000000000000000000000000081526004016106fa906111d2565b60405180910390fd5b61071761070e6107de565b858584036107e6565b600191505092915050565b600061073661072f6107de565b84846109b1565b6001905092915050565b600080600085858592509250925093509350939050565b6000600160008473ffffffffffffffffffffffffffffffffffffffff1673ffffffffffffffffffffffffffffffffffffffff16815260200190815260200160002060008373ffffffffffffffffffffffffffffffffffffffff1673ffffffffffffffffffffffffffffffffffffffff16815260200190815260200160002054905092915050565b600033905090565b600073ffffffffffffffffffffffffffffffffffffffff168373ffffffffffffffffffffffffffffffffffffffff161415610856576040517f08c379a000000000000000000000000000000000000000000000000000000000815260040161084d906111b2565b60405180910390fd5b600073ffffffffffffffffffffffffffffffffffffffff168273ffffffffffffffffffffffffffffffffffffffff1614156108c6576040517f08c379a00000000000000000000000000000000000000000000000000000000081526004016108bd90611132565b60405180910390fd5b80600160008573ffffffffffffffffffffffffffffffffffffffff1673ffffffffffffffffffffffffffffffffffffffff16815260200190815260200160002060008473ffffffffffffffffffffffffffffffffffffffff1673ffffffffffffffffffffffffffffffffffffffff168152602001908152602001600020819055508173ffffffffffffffffffffffffffffffffffffffff168373ffffffffffffffffffffffffffffffffffffffff167f8c5be1e5ebec7d5bd14f71427d1e84f3dd0314c0f7b2291e5b200ac8c7c3b925836040516109a491906111f2565b60405180910390a3505050565b600073ffffffffffffffffffffffffffffffffffffffff168373ffffffffffffffffffffffffffffffffffffffff161415610a21576040517f08c379a0000000000000000000000000000000000000000000000000000000008152600401610a1890611192565b60405180910390fd5b600073ffffffffffffffffffffffffffffffffffffffff168273ffffffffffffffffffffffffffffffffffffffff161415610a91576040517f08c379a0000000000000000000000000000000000000000000000000000000008152600401610a8890611112565b60405180910390fd5b610a9c838383610c32565b60008060008573ffffffffffffffffffffffffffffffffffffffff1673ffffffffffffffffffffffffffffffffffffffff16815260200190815260200160002054905081811015610b22576040517f08c379a0000000000000000000000000000000000000000000000000000000008152600401610b1990611152565b60405180910390fd5b8181036000808673ffffffffffffffffffffffffffffffffffffffff1673ffffffffffffffffffffffffffffffffffffffff16815260200190815260200160002081905550816000808573ffffffffffffffffffffffffffffffffffffffff1673ffffffffffffffffffffffffffffffffffffffff1681526020019081526020016000206000828254610bb5919061127b565b925050819055508273ffffffffffffffffffffffffffffffffffffffff168473ffffffffffffffffffffffffffffffffffffffff167fddf252ad1be2c89b69c2b068fc378daa952ba7f163c4a11628f55a4df523b3ef84604051610c1991906111f2565b60405180910390a3610c2c848484610c37565b50505050565b505050565b505050565b600081359050610c4b816113fa565b92915050565b600081359050610c6081611411565b92915050565b600060208284031215610c7857600080fd5b6000610c8684828501610c3c565b91505092915050565b60008060408385031215610ca257600080fd5b6000610cb085828601610c3c565b9250506020610cc185828601610c3c565b9150509250929050565b600080600060608486031215610ce057600080fd5b6000610cee86828701610c3c565b9350506020610cff86828701610c3c565b9250506040610d1086828701610c51565b9150509250925092565b60008060408385031215610d2d57600080fd5b6000610d3b85828601610c3c565b9250506020610d4c85828601610c51565b9150509250929050565b600080600060608486031215610d6b57600080fd5b6000610d7986828701610c51565b9350506020610d8a86828701610c51565b9250506040610d9b86828701610c51565b9150509250925092565b610dae816112e3565b82525050565b6000610dbf8261125f565b610dc9818561126a565b9350610dd9818560208601611326565b610de2816113e9565b840191505092915050565b6000610dfa60238361126a565b91507f45524332303a207472616e7366657220746f20746865207a65726f206164647260008301527f65737300000000000000000000000000000000000000000000000000000000006020830152604082019050919050565b6000610e6060228361126a565b91507f45524332303a20617070726f766520746f20746865207a65726f20616464726560008301527f73730000000000000000000000000000000000000000000000000000000000006020830152604082019050919050565b6000610ec660268361126a565b91507f45524332303a207472616e7366657220616d6f756e742065786365656473206260008301527f616c616e636500000000000000000000000000000000000000000000000000006020830152604082019050919050565b6000610f2c60288361126a565b91507f45524332303a207472616e7366657220616d6f756e742065786365656473206160008301527f6c6c6f77616e63650000000000000000000000000000000000000000000000006020830152604082019050919050565b6000610f9260258361126a565b91507f45524332303a207472616e736665722066726f6d20746865207a65726f20616460008301527f64726573730000000000000000000000000000000000000000000000000000006020830152604082019050919050565b6000610ff860248361126a565b91507f45524332303a20617070726f76652066726f6d20746865207a65726f2061646460008301527f72657373000000000000000000000000000000000000000000000000000000006020830152604082019050919050565b600061105e60258361126a565b91507f45524332303a2064656372656173656420616c6c6f77616e63652062656c6f7760008301527f207a65726f0000000000000000000000000000000000000000000000000000006020830152604082019050919050565b6110c08161130f565b82525050565b6110cf81611319565b82525050565b60006020820190506110ea6000830184610da5565b92915050565b6000602082019050818103600083015261110a8184610db4565b905092915050565b6000602082019050818103600083015261112b81610ded565b9050919050565b6000602082019050818103600083015261114b81610e53565b9050919050565b6000602082019050818103600083015261116b81610eb9565b9050919050565b6000602082019050818103600083015261118b81610f1f565b9050919050565b600060208201905081810360008301526111ab81610f85565b9050919050565b600060208201905081810360008301526111cb81610feb565b9050919050565b600060208201905081810360008301526111eb81611051565b9050919050565b600060208201905061120760008301846110b7565b92915050565b600060608201905061122260008301866110b7565b61122f60208301856110b7565b61123c60408301846110b7565b949350505050565b600060208201905061125960008301846110c6565b92915050565b600081519050919050565b600082825260208201905092915050565b60006112868261130f565b91506112918361130f565b9250827fffffffffffffffffffffffffffffffffffffffffffffffffffffffffffffffff038211156112c6576112c561138b565b5b828201905092915050565b60006112dc826112ef565b9050919050565b60008115159050919050565b600073ffffffffffffffffffffffffffffffffffffffff82169050919050565b6000819050919050565b600060ff82169050919050565b60005b83811015611344578082015181840152602081019050611329565b83811115611353576000848401525b50505050565b6000600282049050600182168061137157607f821691505b60208210811415611385576113846113ba565b5b50919050565b7f4e487b7100000000000000000000000000000000000000000000000000000000600052601160045260246000fd5b7f4e487b7100000000000000000000000000000000000000000000000000000000600052602260045260246000fd5b6000601f19601f8301169050919050565b611403816112d1565b811461140e57600080fd5b50565b61141a8161130f565b811461142557600080fd5b5056fea2646970667358221220fedde54e8d22db5036b4d7a37163d07f1ae46a1394db0495c45752ee700c208864736f6c63430008000033",
  "immutableReferences": {},
  "source": "pragma solidity ^0.8.0;\n\n// import \"@chainlink/contracts/src/v0.6/ChainlinkClient.sol\"; // importing v0.6 (stable)\nimport \"@openzeppelin/contracts/token/ERC20/ERC20.sol\";\n\ncontract cResToken is ERC20{\n    /*\n    NEED TO MAKE:\n    - constructor\n    - total # of tokens setter\n    - total # of tokens reader \n    - V = product over t periods(TOKEN tokens/POOL tokens^(arbitrary\n        time-affected weight that devalues as a function of trading \n        events undergone as of current epoch 't'))  \n    - V = product over t tokens((TOKEN tokens/POOL tokens)^(1/t))\n    - */\n    uint _totalSupply = 10000;\n\n    string _name = \"Celo Reserve Token\";\n    string _symbol = \"cRES\";\n\n\n    event newTrade(\n        uint date, \n        address from, \n        address to, \n        uint amount\n    );\n\n    mapping(string => uint) expectedRatios;\n\n    function setRatios(uint celo, uint cbtc, uint ceth, uint cusd) private{    \n        expectedRatios[\"CELO\"] = celo;\n        expectedRatios[\"BTC\"] = cbtc;\n        expectedRatios[\"ETH\"] = ceth;\n        expectedRatios[\"cUSD\"] = cusd;\n    }\n\n\n    // function trade(address to, uint amount) external{\n    //     emit newTrade(now, msg.sender, to, amount);\n    // }\n\n    constructor() ERC20(\"cRESToken\", \"cRES\") public{\n        _totalSupply = 10000;\n    }\n\n    function spotPrice(uint256 celoRatio, uint256 celoInReserve, uint256 totalInReserve) public view returns (uint, uint, uint){\n        return (celoRatio, celoInReserve, totalInReserve);\n    }\n\n    function supply() public view returns(uint){\n        return _totalSupply;\n    }\n}\n\n\n\n////////////////// DATA FEED STUFF //////////////////\n\n\n\n// contract BTCAPIConsumer is ChainlinkClient{ \n//     /*\n//     parent: ChainlinkClient\n//     */\n//     uint256 public btcPrice; // price of btc\n\n//     address private oracle;\n//     bytes32 private jobId;\n//     uint256 private fee;\n\n//     constructor() public{\n//         setPublicChainlinkToken();\n\n//         oracle = 0xECcB8F881cE2552EdA4115a162ffE2666B601c33; // https://market.link/data-providers/eb5c92a8-6093-4657-9a68-a6d10719946e/integrations?network=1\n//         jobId = \"0391a670ba8e4a2f80750acfe65b0c89\";\n//         fee = .1 * 10**18; // fee of .1 LINK\n//     }\n\n//     function requestBTCPrice() public returns (bytes32 reqID){\n//         Chainlink.Request memory req = buildChainlinkRequest(jobId, address(this), this.fulfillBTC.selector);\n//         req.add(\"base\", \"BTC/USDT:CXDXF\");\n        \n//         return sendChainlinkRequestTo(oracle, req, fee);\n//     }\n\n//     function fulfillBTC(bytes32 _requestId, uint256 _btcPrice) public recordChainlinkFulfillment(_requestId){\n//         btcPrice = _btcPrice;\n//     }\n// }",
  "sourcePath": "/Users/kabirkapur/Desktop/cRes/contracts/cResToken.sol",
  "compiler": {
    "name": "solc",
    "version": "0.8.0+commit.c7dfd78e.Emscripten.clang"
  },
  "schemaVersion": "3.4.1",
  "updatedAt": "2021-08-02T23:47:06.036Z",
  "networkType": "ethereum",
  "devdoc": {
    "kind": "dev",
    "methods": {
      "allowance(address,address)": {
        "details": "See {IERC20-allowance}."
      },
      "approve(address,uint256)": {
        "details": "See {IERC20-approve}. Requirements: - `spender` cannot be the zero address."
      },
      "balanceOf(address)": {
        "details": "See {IERC20-balanceOf}."
      },
      "decimals()": {
        "details": "Returns the number of decimals used to get its user representation. For example, if `decimals` equals `2`, a balance of `505` tokens should be displayed to a user as `5,05` (`505 / 10 ** 2`). Tokens usually opt for a value of 18, imitating the relationship between Ether and Wei. This is the value {ERC20} uses, unless this function is overridden; NOTE: This information is only used for _display_ purposes: it in no way affects any of the arithmetic of the contract, including {IERC20-balanceOf} and {IERC20-transfer}."
      },
      "decreaseAllowance(address,uint256)": {
        "details": "Atomically decreases the allowance granted to `spender` by the caller. This is an alternative to {approve} that can be used as a mitigation for problems described in {IERC20-approve}. Emits an {Approval} event indicating the updated allowance. Requirements: - `spender` cannot be the zero address. - `spender` must have allowance for the caller of at least `subtractedValue`."
      },
      "increaseAllowance(address,uint256)": {
        "details": "Atomically increases the allowance granted to `spender` by the caller. This is an alternative to {approve} that can be used as a mitigation for problems described in {IERC20-approve}. Emits an {Approval} event indicating the updated allowance. Requirements: - `spender` cannot be the zero address."
      },
      "name()": {
        "details": "Returns the name of the token."
      },
      "symbol()": {
        "details": "Returns the symbol of the token, usually a shorter version of the name."
      },
      "totalSupply()": {
        "details": "See {IERC20-totalSupply}."
      },
      "transfer(address,uint256)": {
        "details": "See {IERC20-transfer}. Requirements: - `recipient` cannot be the zero address. - the caller must have a balance of at least `amount`."
      },
      "transferFrom(address,address,uint256)": {
        "details": "See {IERC20-transferFrom}. Emits an {Approval} event indicating the updated allowance. This is not required by the EIP. See the note at the beginning of {ERC20}. Requirements: - `sender` and `recipient` cannot be the zero address. - `sender` must have a balance of at least `amount`. - the caller must have allowance for ``sender``'s tokens of at least `amount`."
      }
    },
    "version": 1
  },
  "userdoc": {
    "kind": "user",
    "methods": {},
    "version": 1
  }
}