{
  "contractName": "cRESToken",
  "abi": [
    {
      "inputs": [],
      "stateMutability": "nonpayable",
      "type": "constructor"
    },
    {
      "anonymous": false,
      "inputs": [
        {
          "indexed": true,
          "internalType": "address",
          "name": "owner",
          "type": "address"
        },
        {
          "indexed": true,
          "internalType": "address",
          "name": "spender",
          "type": "address"
        },
        {
          "indexed": false,
          "internalType": "uint256",
          "name": "value",
          "type": "uint256"
        }
      ],
      "name": "Approval",
      "type": "event"
    },
    {
      "anonymous": false,
      "inputs": [
        {
          "indexed": false,
          "internalType": "uint256",
          "name": "",
          "type": "uint256"
        }
      ],
      "name": "Bought",
      "type": "event"
    },
    {
      "anonymous": false,
      "inputs": [
        {
          "indexed": true,
          "internalType": "address",
          "name": "from",
          "type": "address"
        },
        {
          "indexed": true,
          "internalType": "address",
          "name": "to",
          "type": "address"
        },
        {
          "indexed": false,
          "internalType": "uint256",
          "name": "value",
          "type": "uint256"
        }
      ],
      "name": "Transfer",
      "type": "event"
    },
    {
      "inputs": [
        {
          "internalType": "address",
          "name": "owner",
          "type": "address"
        },
        {
          "internalType": "address",
          "name": "spender",
          "type": "address"
        }
      ],
      "name": "allowance",
      "outputs": [
        {
          "internalType": "uint256",
          "name": "",
          "type": "uint256"
        }
      ],
      "stateMutability": "view",
      "type": "function"
    },
    {
      "inputs": [
        {
          "internalType": "address",
          "name": "spender",
          "type": "address"
        },
        {
          "internalType": "uint256",
          "name": "amount",
          "type": "uint256"
        }
      ],
      "name": "approve",
      "outputs": [
        {
          "internalType": "bool",
          "name": "",
          "type": "bool"
        }
      ],
      "stateMutability": "nonpayable",
      "type": "function"
    },
    {
      "inputs": [
        {
          "internalType": "address",
          "name": "account",
          "type": "address"
        }
      ],
      "name": "balanceOf",
      "outputs": [
        {
          "internalType": "uint256",
          "name": "",
          "type": "uint256"
        }
      ],
      "stateMutability": "view",
      "type": "function"
    },
    {
      "inputs": [
        {
          "internalType": "uint256",
          "name": "amount",
          "type": "uint256"
        }
      ],
      "name": "burn",
      "outputs": [],
      "stateMutability": "nonpayable",
      "type": "function"
    },
    {
      "inputs": [
        {
          "internalType": "address",
          "name": "account",
          "type": "address"
        },
        {
          "internalType": "uint256",
          "name": "amount",
          "type": "uint256"
        }
      ],
      "name": "burnFrom",
      "outputs": [],
      "stateMutability": "nonpayable",
      "type": "function"
    },
    {
      "inputs": [],
      "name": "cRES",
      "outputs": [
        {
          "internalType": "contract IERC20",
          "name": "",
          "type": "address"
        }
      ],
      "stateMutability": "view",
      "type": "function"
    },
    {
      "inputs": [],
      "name": "decimals",
      "outputs": [
        {
          "internalType": "uint8",
          "name": "",
          "type": "uint8"
        }
      ],
      "stateMutability": "view",
      "type": "function"
    },
    {
      "inputs": [
        {
          "internalType": "address",
          "name": "spender",
          "type": "address"
        },
        {
          "internalType": "uint256",
          "name": "subtractedValue",
          "type": "uint256"
        }
      ],
      "name": "decreaseAllowance",
      "outputs": [
        {
          "internalType": "bool",
          "name": "",
          "type": "bool"
        }
      ],
      "stateMutability": "nonpayable",
      "type": "function"
    },
    {
      "inputs": [
        {
          "internalType": "address",
          "name": "spender",
          "type": "address"
        },
        {
          "internalType": "uint256",
          "name": "addedValue",
          "type": "uint256"
        }
      ],
      "name": "increaseAllowance",
      "outputs": [
        {
          "internalType": "bool",
          "name": "",
          "type": "bool"
        }
      ],
      "stateMutability": "nonpayable",
      "type": "function"
    },
    {
      "inputs": [],
      "name": "name",
      "outputs": [
        {
          "internalType": "string",
          "name": "",
          "type": "string"
        }
      ],
      "stateMutability": "view",
      "type": "function"
    },
    {
      "inputs": [],
      "name": "symbol",
      "outputs": [
        {
          "internalType": "string",
          "name": "",
          "type": "string"
        }
      ],
      "stateMutability": "view",
      "type": "function"
    },
    {
      "inputs": [],
      "name": "totalSupply",
      "outputs": [
        {
          "internalType": "uint256",
          "name": "",
          "type": "uint256"
        }
      ],
      "stateMutability": "view",
      "type": "function"
    },
    {
      "inputs": [
        {
          "internalType": "address",
          "name": "recipient",
          "type": "address"
        },
        {
          "internalType": "uint256",
          "name": "amount",
          "type": "uint256"
        }
      ],
      "name": "transfer",
      "outputs": [
        {
          "internalType": "bool",
          "name": "",
          "type": "bool"
        }
      ],
      "stateMutability": "nonpayable",
      "type": "function"
    },
    {
      "inputs": [
        {
          "internalType": "address",
          "name": "sender",
          "type": "address"
        },
        {
          "internalType": "address",
          "name": "recipient",
          "type": "address"
        },
        {
          "internalType": "uint256",
          "name": "amount",
          "type": "uint256"
        }
      ],
      "name": "transferFrom",
      "outputs": [
        {
          "internalType": "bool",
          "name": "",
          "type": "bool"
        }
      ],
      "stateMutability": "nonpayable",
      "type": "function"
    },
    {
      "inputs": [
        {
          "internalType": "uint256",
          "name": "amount",
          "type": "uint256"
        }
      ],
      "name": "mint",
      "outputs": [],
      "stateMutability": "nonpayable",
      "type": "function"
    },
    {
      "inputs": [
        {
          "internalType": "uint256",
          "name": "_amount",
          "type": "uint256"
        }
      ],
      "name": "sendcRES",
      "outputs": [],
      "stateMutability": "payable",
      "type": "function"
    },
    {
      "inputs": [
        {
          "internalType": "uint256",
          "name": "_amount",
          "type": "uint256"
        }
      ],
      "name": "receivecUSD",
      "outputs": [],
      "stateMutability": "payable",
      "type": "function"
    },
    {
      "inputs": [],
      "name": "getBTC",
      "outputs": [
        {
          "internalType": "uint256",
          "name": "",
          "type": "uint256"
        }
      ],
      "stateMutability": "view",
      "type": "function"
    }
  ],
  "bytecode": "0x608060405260016005556040518060800160405280601e81526020016032815260200160058152602001600f81525060086000820151816000015560208201518160010155604082015181600201556060820151816003015550503480156200006757600080fd5b506040518060400160405280601281526020017f43656c6f205265736572766520546f6b656e00000000000000000000000000008152506040518060400160405280600481526020017f63524553000000000000000000000000000000000000000000000000000000008152508160039080519060200190620000ec92919062000352565b5080600490805190602001906200010592919062000352565b5050506200011b306001620001cf60201b60201c565b6001600c60003073ffffffffffffffffffffffffffffffffffffffff1673ffffffffffffffffffffffffffffffffffffffff16815260200190815260200160002060008282546200016d9190620004a5565b9250508190555073b73db1a6a85219742fbd0fc7cc275c62209aa660600660006101000a81548173ffffffffffffffffffffffffffffffffffffffff021916908373ffffffffffffffffffffffffffffffffffffffff160217905550620005a0565b600073ffffffffffffffffffffffffffffffffffffffff168273ffffffffffffffffffffffffffffffffffffffff16141562000242576040517f08c379a0000000000000000000000000000000000000000000000000000000008152600401620002399062000455565b60405180910390fd5b62000256600083836200034860201b60201c565b80600260008282546200026a9190620004a5565b92505081905550806000808473ffffffffffffffffffffffffffffffffffffffff1673ffffffffffffffffffffffffffffffffffffffff1681526020019081526020016000206000828254620002c19190620004a5565b925050819055508173ffffffffffffffffffffffffffffffffffffffff16600073ffffffffffffffffffffffffffffffffffffffff167fddf252ad1be2c89b69c2b068fc378daa952ba7f163c4a11628f55a4df523b3ef8360405162000328919062000477565b60405180910390a362000344600083836200034d60201b60201c565b5050565b505050565b505050565b82805462000360906200050c565b90600052602060002090601f016020900481019282620003845760008555620003d0565b82601f106200039f57805160ff1916838001178555620003d0565b82800160010185558215620003d0579182015b82811115620003cf578251825591602001919060010190620003b2565b5b509050620003df9190620003e3565b5090565b5b80821115620003fe576000816000905550600101620003e4565b5090565b600062000411601f8362000494565b91507f45524332303a206d696e7420746f20746865207a65726f2061646472657373006000830152602082019050919050565b6200044f8162000502565b82525050565b60006020820190508181036000830152620004708162000402565b9050919050565b60006020820190506200048e600083018462000444565b92915050565b600082825260208201905092915050565b6000620004b28262000502565b9150620004bf8362000502565b9250827fffffffffffffffffffffffffffffffffffffffffffffffffffffffffffffffff03821115620004f757620004f662000542565b5b828201905092915050565b6000819050919050565b600060028204905060018216806200052557607f821691505b602082108114156200053c576200053b62000571565b5b50919050565b7f4e487b7100000000000000000000000000000000000000000000000000000000600052601160045260246000fd5b7f4e487b7100000000000000000000000000000000000000000000000000000000600052602260045260246000fd5b6120b680620005b06000396000f3fe6080604052600436106101095760003560e01c806379cc679011610095578063a457c2d711610064578063a457c2d714610370578063a9059cbb146103ad578063ca9ce499146103ea578063dd62ed3e14610406578063e62854c71461044357610109565b806379cc6790146102d75780637a370bd51461030057806395d89b411461031c578063a0712d681461034757610109565b8063313ce567116100dc578063313ce567146101de578063395093511461020957806342966c68146102465780635e4c29ff1461026f57806370a082311461029a57610109565b806306fdde031461010e578063095ea7b31461013957806318160ddd1461017657806323b872dd146101a1575b600080fd5b34801561011a57600080fd5b5061012361046e565b6040516101309190611bf7565b60405180910390f35b34801561014557600080fd5b50610160600480360381019061015b919061159d565b610500565b60405161016d9190611bc1565b60405180910390f35b34801561018257600080fd5b5061018b61051e565b6040516101989190611d99565b60405180910390f35b3480156101ad57600080fd5b506101c860048036038101906101c3919061154e565b610528565b6040516101d59190611bc1565b60405180910390f35b3480156101ea57600080fd5b506101f3610620565b6040516102009190611db4565b60405180910390f35b34801561021557600080fd5b50610230600480360381019061022b919061159d565b610629565b60405161023d9190611bc1565b60405180910390f35b34801561025257600080fd5b5061026d600480360381019061026891906115d9565b6106d5565b005b34801561027b57600080fd5b506102846106e9565b6040516102919190611bdc565b60405180910390f35b3480156102a657600080fd5b506102c160048036038101906102bc91906114e9565b61070f565b6040516102ce9190611d99565b60405180910390f35b3480156102e357600080fd5b506102fe60048036038101906102f9919061159d565b610757565b005b61031a600480360381019061031591906115d9565b6107d2565b005b34801561032857600080fd5b50610331610845565b60405161033e9190611bf7565b60405180910390f35b34801561035357600080fd5b5061036e600480360381019061036991906115d9565b6108d7565b005b34801561037c57600080fd5b506103976004803603810190610392919061159d565b6108e4565b6040516103a49190611bc1565b60405180910390f35b3480156103b957600080fd5b506103d460048036038101906103cf919061159d565b6109cf565b6040516103e19190611bc1565b60405180910390f35b61040460048036038101906103ff91906115d9565b6109ed565b005b34801561041257600080fd5b5061042d60048036038101906104289190611512565b610b56565b60405161043a9190611d99565b60405180910390f35b34801561044f57600080fd5b50610458610bdd565b6040516104659190611d99565b60405180910390f35b60606003805461047d90611f82565b80601f01602080910402602001604051908101604052809291908181526020018280546104a990611f82565b80156104f65780601f106104cb576101008083540402835291602001916104f6565b820191906000526020600020905b8154815290600101906020018083116104d957829003601f168201915b5050505050905090565b600061051461050d610cad565b8484610cb5565b6001905092915050565b6000600254905090565b6000610535848484610e80565b6000600160008673ffffffffffffffffffffffffffffffffffffffff1673ffffffffffffffffffffffffffffffffffffffff1681526020019081526020016000206000610580610cad565b73ffffffffffffffffffffffffffffffffffffffff1673ffffffffffffffffffffffffffffffffffffffff16815260200190815260200160002054905082811015610600576040517f08c379a00000000000000000000000000000000000000000000000000000000081526004016105f790611c99565b60405180910390fd5b6106148561060c610cad565b858403610cb5565b60019150509392505050565b60006012905090565b60006106cb610636610cad565b848460016000610644610cad565b73ffffffffffffffffffffffffffffffffffffffff1673ffffffffffffffffffffffffffffffffffffffff16815260200190815260200160002060008873ffffffffffffffffffffffffffffffffffffffff1673ffffffffffffffffffffffffffffffffffffffff168152602001908152602001600020546106c69190611e4c565b610cb5565b6001905092915050565b6106e66106e0610cad565b82611101565b50565b600760009054906101000a900473ffffffffffffffffffffffffffffffffffffffff1681565b60008060008373ffffffffffffffffffffffffffffffffffffffff1673ffffffffffffffffffffffffffffffffffffffff168152602001908152602001600020549050919050565b600061076a83610765610cad565b610b56565b9050818110156107af576040517f08c379a00000000000000000000000000000000000000000000000000000000081526004016107a690611cb9565b60405180910390fd5b6107c3836107bb610cad565b848403610cb5565b6107cd8383611101565b505050565b6107dc30826109cf565b503373ffffffffffffffffffffffffffffffffffffffff163073ffffffffffffffffffffffffffffffffffffffff167fddf252ad1be2c89b69c2b068fc378daa952ba7f163c4a11628f55a4df523b3ef8360405161083a9190611d99565b60405180910390a350565b60606004805461085490611f82565b80601f016020809104026020016040519081016040528092919081815260200182805461088090611f82565b80156108cd5780601f106108a2576101008083540402835291602001916108cd565b820191906000526020600020905b8154815290600101906020018083116108b057829003601f168201915b5050505050905090565b6108e130826112d8565b50565b600080600160006108f3610cad565b73ffffffffffffffffffffffffffffffffffffffff1673ffffffffffffffffffffffffffffffffffffffff16815260200190815260200160002060008573ffffffffffffffffffffffffffffffffffffffff1673ffffffffffffffffffffffffffffffffffffffff168152602001908152602001600020549050828110156109b0576040517f08c379a00000000000000000000000000000000000000000000000000000000081526004016109a790611d59565b60405180910390fd5b6109c46109bb610cad565b85858403610cb5565b600191505092915050565b60006109e36109dc610cad565b8484610e80565b6001905092915050565b6109f730826112d8565b600760009054906101000a900473ffffffffffffffffffffffffffffffffffffffff1673ffffffffffffffffffffffffffffffffffffffff166370a08231306040518263ffffffff1660e01b8152600401610a529190611ba6565b60206040518083038186803b158015610a6a57600080fd5b505afa158015610a7e573d6000803e3d6000fd5b505050506040513d601f19601f82011682018060405250810190610aa29190611602565b811115610ad8577f4e487b7100000000000000000000000000000000000000000000000000000000600052600160045260246000fd5b600554811015610b11577f4e487b7100000000000000000000000000000000000000000000000000000000600052600160045260246000fd5b610b1b33826109cf565b507f4e08ba899977cf7d4c2964bce71c6b9a7ef76ee5166a4c1249a1e08016e33ef181604051610b4b9190611d99565b60405180910390a150565b6000600160008473ffffffffffffffffffffffffffffffffffffffff1673ffffffffffffffffffffffffffffffffffffffff16815260200190815260200160002060008373ffffffffffffffffffffffffffffffffffffffff1673ffffffffffffffffffffffffffffffffffffffff16815260200190815260200160002054905092915050565b6000806000806060600660009054906101000a900473ffffffffffffffffffffffffffffffffffffffff1673ffffffffffffffffffffffffffffffffffffffff1663e12214006040518163ffffffff1660e01b8152600401610c3e90611d39565b60006040518083038186803b158015610c5657600080fd5b505afa158015610c6a573d6000803e3d6000fd5b505050506040513d6000823e3d601f19601f82011682018060405250810190610c93919061162b565b809450819550829650839750505050508394505050505090565b600033905090565b600073ffffffffffffffffffffffffffffffffffffffff168373ffffffffffffffffffffffffffffffffffffffff161415610d25576040517f08c379a0000000000000000000000000000000000000000000000000000000008152600401610d1c90611d19565b60405180910390fd5b600073ffffffffffffffffffffffffffffffffffffffff168273ffffffffffffffffffffffffffffffffffffffff161415610d95576040517f08c379a0000000000000000000000000000000000000000000000000000000008152600401610d8c90611c59565b60405180910390fd5b80600160008573ffffffffffffffffffffffffffffffffffffffff1673ffffffffffffffffffffffffffffffffffffffff16815260200190815260200160002060008473ffffffffffffffffffffffffffffffffffffffff1673ffffffffffffffffffffffffffffffffffffffff168152602001908152602001600020819055508173ffffffffffffffffffffffffffffffffffffffff168373ffffffffffffffffffffffffffffffffffffffff167f8c5be1e5ebec7d5bd14f71427d1e84f3dd0314c0f7b2291e5b200ac8c7c3b92583604051610e739190611d99565b60405180910390a3505050565b600073ffffffffffffffffffffffffffffffffffffffff168373ffffffffffffffffffffffffffffffffffffffff161415610ef0576040517f08c379a0000000000000000000000000000000000000000000000000000000008152600401610ee790611cf9565b60405180910390fd5b600073ffffffffffffffffffffffffffffffffffffffff168273ffffffffffffffffffffffffffffffffffffffff161415610f60576040517f08c379a0000000000000000000000000000000000000000000000000000000008152600401610f5790611c19565b60405180910390fd5b610f6b838383611438565b60008060008573ffffffffffffffffffffffffffffffffffffffff1673ffffffffffffffffffffffffffffffffffffffff16815260200190815260200160002054905081811015610ff1576040517f08c379a0000000000000000000000000000000000000000000000000000000008152600401610fe890611c79565b60405180910390fd5b8181036000808673ffffffffffffffffffffffffffffffffffffffff1673ffffffffffffffffffffffffffffffffffffffff16815260200190815260200160002081905550816000808573ffffffffffffffffffffffffffffffffffffffff1673ffffffffffffffffffffffffffffffffffffffff16815260200190815260200160002060008282546110849190611e4c565b925050819055508273ffffffffffffffffffffffffffffffffffffffff168473ffffffffffffffffffffffffffffffffffffffff167fddf252ad1be2c89b69c2b068fc378daa952ba7f163c4a11628f55a4df523b3ef846040516110e89190611d99565b60405180910390a36110fb84848461143d565b50505050565b600073ffffffffffffffffffffffffffffffffffffffff168273ffffffffffffffffffffffffffffffffffffffff161415611171576040517f08c379a000000000000000000000000000000000000000000000000000000000815260040161116890611cd9565b60405180910390fd5b61117d82600083611438565b60008060008473ffffffffffffffffffffffffffffffffffffffff1673ffffffffffffffffffffffffffffffffffffffff16815260200190815260200160002054905081811015611203576040517f08c379a00000000000000000000000000000000000000000000000000000000081526004016111fa90611c39565b60405180910390fd5b8181036000808573ffffffffffffffffffffffffffffffffffffffff1673ffffffffffffffffffffffffffffffffffffffff16815260200190815260200160002081905550816002600082825461125a9190611ea2565b92505081905550600073ffffffffffffffffffffffffffffffffffffffff168373ffffffffffffffffffffffffffffffffffffffff167fddf252ad1be2c89b69c2b068fc378daa952ba7f163c4a11628f55a4df523b3ef846040516112bf9190611d99565b60405180910390a36112d38360008461143d565b505050565b600073ffffffffffffffffffffffffffffffffffffffff168273ffffffffffffffffffffffffffffffffffffffff161415611348576040517f08c379a000000000000000000000000000000000000000000000000000000000815260040161133f90611d79565b60405180910390fd5b61135460008383611438565b80600260008282546113669190611e4c565b92505081905550806000808473ffffffffffffffffffffffffffffffffffffffff1673ffffffffffffffffffffffffffffffffffffffff16815260200190815260200160002060008282546113bb9190611e4c565b925050819055508173ffffffffffffffffffffffffffffffffffffffff16600073ffffffffffffffffffffffffffffffffffffffff167fddf252ad1be2c89b69c2b068fc378daa952ba7f163c4a11628f55a4df523b3ef836040516114209190611d99565b60405180910390a36114346000838361143d565b5050565b505050565b505050565b600061145561145084611e00565b611dcf565b90508281526020810184848401111561146d57600080fd5b611478848285611f4f565b509392505050565b60008135905061148f81612052565b92915050565b600082601f8301126114a657600080fd5b81516114b6848260208601611442565b91505092915050565b6000813590506114ce81612069565b92915050565b6000815190506114e381612069565b92915050565b6000602082840312156114fb57600080fd5b600061150984828501611480565b91505092915050565b6000806040838503121561152557600080fd5b600061153385828601611480565b925050602061154485828601611480565b9150509250929050565b60008060006060848603121561156357600080fd5b600061157186828701611480565b935050602061158286828701611480565b9250506040611593868287016114bf565b9150509250925092565b600080604083850312156115b057600080fd5b60006115be85828601611480565b92505060206115cf858286016114bf565b9150509250929050565b6000602082840312156115eb57600080fd5b60006115f9848285016114bf565b91505092915050565b60006020828403121561161457600080fd5b6000611622848285016114d4565b91505092915050565b6000806000806080858703121561164157600080fd5b600061164f878288016114d4565b9450506020611660878288016114d4565b9350506040611671878288016114d4565b925050606085015167ffffffffffffffff81111561168e57600080fd5b61169a87828801611495565b91505092959194509250565b6116af81611ed6565b82525050565b6116be81611ee8565b82525050565b6116cd81611f2b565b82525050565b60006116de82611e30565b6116e88185611e3b565b93506116f8818560208601611f4f565b61170181612041565b840191505092915050565b6000611719602383611e3b565b91507f45524332303a207472616e7366657220746f20746865207a65726f206164647260008301527f65737300000000000000000000000000000000000000000000000000000000006020830152604082019050919050565b600061177f602283611e3b565b91507f45524332303a206275726e20616d6f756e7420657863656564732062616c616e60008301527f63650000000000000000000000000000000000000000000000000000000000006020830152604082019050919050565b60006117e5602283611e3b565b91507f45524332303a20617070726f766520746f20746865207a65726f20616464726560008301527f73730000000000000000000000000000000000000000000000000000000000006020830152604082019050919050565b600061184b602683611e3b565b91507f45524332303a207472616e7366657220616d6f756e742065786365656473206260008301527f616c616e636500000000000000000000000000000000000000000000000000006020830152604082019050919050565b60006118b1602883611e3b565b91507f45524332303a207472616e7366657220616d6f756e742065786365656473206160008301527f6c6c6f77616e63650000000000000000000000000000000000000000000000006020830152604082019050919050565b6000611917602483611e3b565b91507f45524332303a206275726e20616d6f756e74206578636565647320616c6c6f7760008301527f616e6365000000000000000000000000000000000000000000000000000000006020830152604082019050919050565b600061197d602183611e3b565b91507f45524332303a206275726e2066726f6d20746865207a65726f2061646472657360008301527f73000000000000000000000000000000000000000000000000000000000000006020830152604082019050919050565b60006119e3602583611e3b565b91507f45524332303a207472616e736665722066726f6d20746865207a65726f20616460008301527f64726573730000000000000000000000000000000000000000000000000000006020830152604082019050919050565b6000611a49602483611e3b565b91507f45524332303a20617070726f76652066726f6d20746865207a65726f2061646460008301527f72657373000000000000000000000000000000000000000000000000000000006020830152604082019050919050565b6000611aaf600783611e3b565b91507f426974636f696e000000000000000000000000000000000000000000000000006000830152602082019050919050565b6000611aef602583611e3b565b91507f45524332303a2064656372656173656420616c6c6f77616e63652062656c6f7760008301527f207a65726f0000000000000000000000000000000000000000000000000000006020830152604082019050919050565b6000611b55601f83611e3b565b91507f45524332303a206d696e7420746f20746865207a65726f2061646472657373006000830152602082019050919050565b611b9181611f14565b82525050565b611ba081611f1e565b82525050565b6000602082019050611bbb60008301846116a6565b92915050565b6000602082019050611bd660008301846116b5565b92915050565b6000602082019050611bf160008301846116c4565b92915050565b60006020820190508181036000830152611c1181846116d3565b905092915050565b60006020820190508181036000830152611c328161170c565b9050919050565b60006020820190508181036000830152611c5281611772565b9050919050565b60006020820190508181036000830152611c72816117d8565b9050919050565b60006020820190508181036000830152611c928161183e565b9050919050565b60006020820190508181036000830152611cb2816118a4565b9050919050565b60006020820190508181036000830152611cd28161190a565b9050919050565b60006020820190508181036000830152611cf281611970565b9050919050565b60006020820190508181036000830152611d12816119d6565b9050919050565b60006020820190508181036000830152611d3281611a3c565b9050919050565b60006020820190508181036000830152611d5281611aa2565b9050919050565b60006020820190508181036000830152611d7281611ae2565b9050919050565b60006020820190508181036000830152611d9281611b48565b9050919050565b6000602082019050611dae6000830184611b88565b92915050565b6000602082019050611dc96000830184611b97565b92915050565b6000604051905081810181811067ffffffffffffffff82111715611df657611df5612012565b5b8060405250919050565b600067ffffffffffffffff821115611e1b57611e1a612012565b5b601f19601f8301169050602081019050919050565b600081519050919050565b600082825260208201905092915050565b6000611e5782611f14565b9150611e6283611f14565b9250827fffffffffffffffffffffffffffffffffffffffffffffffffffffffffffffffff03821115611e9757611e96611fb4565b5b828201905092915050565b6000611ead82611f14565b9150611eb883611f14565b925082821015611ecb57611eca611fb4565b5b828203905092915050565b6000611ee182611ef4565b9050919050565b60008115159050919050565b600073ffffffffffffffffffffffffffffffffffffffff82169050919050565b6000819050919050565b600060ff82169050919050565b6000611f3682611f3d565b9050919050565b6000611f4882611ef4565b9050919050565b60005b83811015611f6d578082015181840152602081019050611f52565b83811115611f7c576000848401525b50505050565b60006002820490506001821680611f9a57607f821691505b60208210811415611fae57611fad611fe3565b5b50919050565b7f4e487b7100000000000000000000000000000000000000000000000000000000600052601160045260246000fd5b7f4e487b7100000000000000000000000000000000000000000000000000000000600052602260045260246000fd5b7f4e487b7100000000000000000000000000000000000000000000000000000000600052604160045260246000fd5b6000601f19601f8301169050919050565b61205b81611ed6565b811461206657600080fd5b50565b61207281611f14565b811461207d57600080fd5b5056fea26469706673582212203c42cee953382b133a9848d1e30075ce8b965e8d24277896bdf31e68c3d742d364736f6c63430008000033",
  "immutableReferences": {},
  "source": "pragma solidity ^0.8.0;\n\n// SPDX-License-Identifier: <SPDX-License>\n\n// hash: 0x3591A63b1986AE4080a196DF6C1b20A07c34678f\n// 0x3591A63b1986AE4080a196DF6C1b20A07c34678f\n\n// mnemonic:\n/*rapid exhibit minor hero staff want shed \n stock just glimpse vapor discover brown \n fitness omit slush entry print advice antenna\n senior gate slim carbon */\n\nimport \"@openzeppelin/contracts/token/ERC20/ERC20.sol\";\nimport \"@openzeppelin/contracts/token/ERC20/extensions/ERC20Burnable.sol\";\nimport \"./DIAOracle.sol\";\n\n\n\ncontract cRESToken is ERC20, ERC20Burnable{\n    uint256 currentPrice = 1;\n\n    DiaOracle oracle;\n\n    struct expectedRatios{\n        uint BTC;\n        uint CELO;\n        uint cUSD;\n        uint ETH;\n    }\n\n    IERC20 public cRES;\n    expectedRatios ratios = expectedRatios({BTC:30, CELO:50, cUSD:5, ETH:15});\n\n    mapping(address=>uint) balances;\n\n    event Bought(uint256);\n\n    constructor() ERC20(\"Celo Reserve Token\", \"cRES\"){ // mint 1 token to a\n        _mint(address(this), 1); \n        balances[address(this)] += 1;\n        oracle = DiaOracle(0xb73db1A6a85219742fbd0fC7cc275c62209aA660);\n    }\n\n    function mint(uint256 amount) public {\n        _mint(address(this), amount);\n    }\n\n    function sendcRES(uint256 _amount) external payable { \n        _mint(address(this), _amount); // mint AMOUNT tokens\n        assert(_amount <= cRES.balanceOf(address(this)));\n        assert(_amount >= currentPrice);\n        transfer(msg.sender, _amount); // transfer AMOUNT worth of cRES\n        emit Bought(_amount);\n    }\n\n    function receivecUSD(uint256 _amount) external payable {\n        transfer(address(this), _amount);\n        emit Transfer(address(this), msg.sender, _amount);\n    }\n\n    function getBTC() external view returns(uint) {\n        // DiaOracle oracle = DiaOracle(0xCd8E18890E416Aa7ab09aa793b406C187747C687); // declare oracle instance @ celo oracle location\n        // DiaOracle oracle = DiaOracle(0xb73db1A6a85219742fbd0fC7cc275c62209aA660); // declare oracle instance @ kovan oracle location\n        uint256 price;\n        uint256 supply;\n        uint256 lastUpdateTimestamp;\n        string memory symbol;\n        (price, supply, lastUpdateTimestamp, symbol) = oracle.getCoinInfo(\"Bitcoin\");\n        return price;\n    }\n\n    function getETH() private returns(uint) {\n        // privately retreive price of ETH\n    }\n\n    function getCELO() private returns(uint) {\n        // privately retreive price of CELO\n    }\n\n    function getDAI() private returns(uint) {\n        // privately retreive price of DAI\n    }\n\n    function spotPrice() private returns(uint256) {\n        // price the asset\n    }\n}",
  "sourcePath": "/Users/kabirkapur/Desktop/cRes/contracts/cRESToken.sol",
  "compiler": {
    "name": "solc",
    "version": "0.8.0+commit.c7dfd78e.Emscripten.clang"
  },
  "schemaVersion": "3.4.1",
  "updatedAt": "2021-09-07T00:08:37.576Z",
  "devdoc": {
    "kind": "dev",
    "methods": {
      "allowance(address,address)": {
        "details": "See {IERC20-allowance}."
      },
      "approve(address,uint256)": {
        "details": "See {IERC20-approve}. Requirements: - `spender` cannot be the zero address."
      },
      "balanceOf(address)": {
        "details": "See {IERC20-balanceOf}."
      },
      "burn(uint256)": {
        "details": "Destroys `amount` tokens from the caller. See {ERC20-_burn}."
      },
      "burnFrom(address,uint256)": {
        "details": "Destroys `amount` tokens from `account`, deducting from the caller's allowance. See {ERC20-_burn} and {ERC20-allowance}. Requirements: - the caller must have allowance for ``accounts``'s tokens of at least `amount`."
      },
      "decimals()": {
        "details": "Returns the number of decimals used to get its user representation. For example, if `decimals` equals `2`, a balance of `505` tokens should be displayed to a user as `5.05` (`505 / 10 ** 2`). Tokens usually opt for a value of 18, imitating the relationship between Ether and Wei. This is the value {ERC20} uses, unless this function is overridden; NOTE: This information is only used for _display_ purposes: it in no way affects any of the arithmetic of the contract, including {IERC20-balanceOf} and {IERC20-transfer}."
      },
      "decreaseAllowance(address,uint256)": {
        "details": "Atomically decreases the allowance granted to `spender` by the caller. This is an alternative to {approve} that can be used as a mitigation for problems described in {IERC20-approve}. Emits an {Approval} event indicating the updated allowance. Requirements: - `spender` cannot be the zero address. - `spender` must have allowance for the caller of at least `subtractedValue`."
      },
      "increaseAllowance(address,uint256)": {
        "details": "Atomically increases the allowance granted to `spender` by the caller. This is an alternative to {approve} that can be used as a mitigation for problems described in {IERC20-approve}. Emits an {Approval} event indicating the updated allowance. Requirements: - `spender` cannot be the zero address."
      },
      "name()": {
        "details": "Returns the name of the token."
      },
      "symbol()": {
        "details": "Returns the symbol of the token, usually a shorter version of the name."
      },
      "totalSupply()": {
        "details": "See {IERC20-totalSupply}."
      },
      "transfer(address,uint256)": {
        "details": "See {IERC20-transfer}. Requirements: - `recipient` cannot be the zero address. - the caller must have a balance of at least `amount`."
      },
      "transferFrom(address,address,uint256)": {
        "details": "See {IERC20-transferFrom}. Emits an {Approval} event indicating the updated allowance. This is not required by the EIP. See the note at the beginning of {ERC20}. Requirements: - `sender` and `recipient` cannot be the zero address. - `sender` must have a balance of at least `amount`. - the caller must have allowance for ``sender``'s tokens of at least `amount`."
      }
    },
    "version": 1
  },
  "userdoc": {
    "kind": "user",
    "methods": {},
    "version": 1
  }
}