{
  "contractName": "cResToken",
  "abi": [
    {
      "inputs": [],
      "stateMutability": "nonpayable",
      "type": "constructor"
    },
    {
      "anonymous": false,
      "inputs": [
        {
          "indexed": true,
          "internalType": "address",
          "name": "owner",
          "type": "address"
        },
        {
          "indexed": true,
          "internalType": "address",
          "name": "spender",
          "type": "address"
        },
        {
          "indexed": false,
          "internalType": "uint256",
          "name": "value",
          "type": "uint256"
        }
      ],
      "name": "Approval",
      "type": "event"
    },
    {
      "anonymous": false,
      "inputs": [
        {
          "indexed": true,
          "internalType": "address",
          "name": "from",
          "type": "address"
        },
        {
          "indexed": true,
          "internalType": "address",
          "name": "to",
          "type": "address"
        },
        {
          "indexed": false,
          "internalType": "uint256",
          "name": "value",
          "type": "uint256"
        }
      ],
      "name": "Transfer",
      "type": "event"
    },
    {
      "inputs": [
        {
          "internalType": "address",
          "name": "owner",
          "type": "address"
        },
        {
          "internalType": "address",
          "name": "spender",
          "type": "address"
        }
      ],
      "name": "allowance",
      "outputs": [
        {
          "internalType": "uint256",
          "name": "",
          "type": "uint256"
        }
      ],
      "stateMutability": "view",
      "type": "function"
    },
    {
      "inputs": [
        {
          "internalType": "address",
          "name": "spender",
          "type": "address"
        },
        {
          "internalType": "uint256",
          "name": "amount",
          "type": "uint256"
        }
      ],
      "name": "approve",
      "outputs": [
        {
          "internalType": "bool",
          "name": "",
          "type": "bool"
        }
      ],
      "stateMutability": "nonpayable",
      "type": "function"
    },
    {
      "inputs": [
        {
          "internalType": "address",
          "name": "account",
          "type": "address"
        }
      ],
      "name": "balanceOf",
      "outputs": [
        {
          "internalType": "uint256",
          "name": "",
          "type": "uint256"
        }
      ],
      "stateMutability": "view",
      "type": "function"
    },
    {
      "inputs": [
        {
          "internalType": "uint256",
          "name": "amount",
          "type": "uint256"
        }
      ],
      "name": "burn",
      "outputs": [],
      "stateMutability": "nonpayable",
      "type": "function"
    },
    {
      "inputs": [
        {
          "internalType": "address",
          "name": "account",
          "type": "address"
        },
        {
          "internalType": "uint256",
          "name": "amount",
          "type": "uint256"
        }
      ],
      "name": "burnFrom",
      "outputs": [],
      "stateMutability": "nonpayable",
      "type": "function"
    },
    {
      "inputs": [],
      "name": "decimals",
      "outputs": [
        {
          "internalType": "uint8",
          "name": "",
          "type": "uint8"
        }
      ],
      "stateMutability": "view",
      "type": "function"
    },
    {
      "inputs": [
        {
          "internalType": "address",
          "name": "spender",
          "type": "address"
        },
        {
          "internalType": "uint256",
          "name": "subtractedValue",
          "type": "uint256"
        }
      ],
      "name": "decreaseAllowance",
      "outputs": [
        {
          "internalType": "bool",
          "name": "",
          "type": "bool"
        }
      ],
      "stateMutability": "nonpayable",
      "type": "function"
    },
    {
      "inputs": [
        {
          "internalType": "address",
          "name": "spender",
          "type": "address"
        },
        {
          "internalType": "uint256",
          "name": "addedValue",
          "type": "uint256"
        }
      ],
      "name": "increaseAllowance",
      "outputs": [
        {
          "internalType": "bool",
          "name": "",
          "type": "bool"
        }
      ],
      "stateMutability": "nonpayable",
      "type": "function"
    },
    {
      "inputs": [
        {
          "internalType": "address",
          "name": "recipient",
          "type": "address"
        },
        {
          "internalType": "uint256",
          "name": "amount",
          "type": "uint256"
        }
      ],
      "name": "transfer",
      "outputs": [
        {
          "internalType": "bool",
          "name": "",
          "type": "bool"
        }
      ],
      "stateMutability": "nonpayable",
      "type": "function"
    },
    {
      "inputs": [
        {
          "internalType": "address",
          "name": "sender",
          "type": "address"
        },
        {
          "internalType": "address",
          "name": "recipient",
          "type": "address"
        },
        {
          "internalType": "uint256",
          "name": "amount",
          "type": "uint256"
        }
      ],
      "name": "transferFrom",
      "outputs": [
        {
          "internalType": "bool",
          "name": "",
          "type": "bool"
        }
      ],
      "stateMutability": "nonpayable",
      "type": "function"
    },
    {
      "inputs": [],
      "name": "totalSupply",
      "outputs": [
        {
          "internalType": "uint256",
          "name": "",
          "type": "uint256"
        }
      ],
      "stateMutability": "view",
      "type": "function"
    },
    {
      "inputs": [],
      "name": "name",
      "outputs": [
        {
          "internalType": "string",
          "name": "",
          "type": "string"
        }
      ],
      "stateMutability": "view",
      "type": "function"
    },
    {
      "inputs": [],
      "name": "symbol",
      "outputs": [
        {
          "internalType": "string",
          "name": "",
          "type": "string"
        }
      ],
      "stateMutability": "view",
      "type": "function"
    },
    {
      "inputs": [],
      "name": "btcPrice",
      "outputs": [
        {
          "internalType": "uint256",
          "name": "",
          "type": "uint256"
        }
      ],
      "stateMutability": "view",
      "type": "function"
    },
    {
      "inputs": [],
      "name": "minterStatus",
      "outputs": [
        {
          "internalType": "uint256",
          "name": "",
          "type": "uint256"
        }
      ],
      "stateMutability": "nonpayable",
      "type": "function"
    },
    {
      "inputs": [],
      "name": "thisAddress",
      "outputs": [
        {
          "internalType": "address",
          "name": "",
          "type": "address"
        }
      ],
      "stateMutability": "view",
      "type": "function"
    }
  ],
  "bytecode": "0x60806040526127106005556001600660006101000a81548160ff021916908360ff1602179055506040518060400160405280601281526020017f43656c6f205265736572766520546f6b656e0000000000000000000000000000815250600790805190602001906200007392919062000382565b506040518060400160405280600481526020017f635245530000000000000000000000000000000000000000000000000000000081525060089080519060200190620000c192919062000382565b50348015620000cf57600080fd5b506040518060400160405280601281526020017f43656c6f205265736572766520546f6b656e00000000000000000000000000008152506040518060400160405280600481526020017f635245530000000000000000000000000000000000000000000000000000000081525081600390805190602001906200015492919062000382565b5080600490805190602001906200016d92919062000382565b50505062000183336001620001ff60201b60201c565b6001600a60003373ffffffffffffffffffffffffffffffffffffffff1673ffffffffffffffffffffffffffffffffffffffff16815260200190815260200160002060008282829054906101000a900460ff16620001e1919062000532565b92506101000a81548160ff021916908360ff1602179055506200061b565b600073ffffffffffffffffffffffffffffffffffffffff168273ffffffffffffffffffffffffffffffffffffffff16141562000272576040517f08c379a0000000000000000000000000000000000000000000000000000000008152600401620002699062000485565b60405180910390fd5b62000286600083836200037860201b60201c565b80600260008282546200029a9190620004d5565b92505081905550806000808473ffffffffffffffffffffffffffffffffffffffff1673ffffffffffffffffffffffffffffffffffffffff1681526020019081526020016000206000828254620002f19190620004d5565b925050819055508173ffffffffffffffffffffffffffffffffffffffff16600073ffffffffffffffffffffffffffffffffffffffff167fddf252ad1be2c89b69c2b068fc378daa952ba7f163c4a11628f55a4df523b3ef83604051620003589190620004a7565b60405180910390a362000374600083836200037d60201b60201c565b5050565b505050565b505050565b828054620003909062000587565b90600052602060002090601f016020900481019282620003b4576000855562000400565b82601f10620003cf57805160ff191683800117855562000400565b8280016001018555821562000400579182015b82811115620003ff578251825591602001919060010190620003e2565b5b5090506200040f919062000413565b5090565b5b808211156200042e57600081600090555060010162000414565b5090565b600062000441601f83620004c4565b91507f45524332303a206d696e7420746f20746865207a65726f2061646472657373006000830152602082019050919050565b6200047f8162000570565b82525050565b60006020820190508181036000830152620004a08162000432565b9050919050565b6000602082019050620004be600083018462000474565b92915050565b600082825260208201905092915050565b6000620004e28262000570565b9150620004ef8362000570565b9250827fffffffffffffffffffffffffffffffffffffffffffffffffffffffffffffffff03821115620005275762000526620005bd565b5b828201905092915050565b60006200053f826200057a565b91506200054c836200057a565b92508260ff03821115620005655762000564620005bd565b5b828201905092915050565b6000819050919050565b600060ff82169050919050565b60006002820490506001821680620005a057607f821691505b60208210811415620005b757620005b6620005ec565b5b50919050565b7f4e487b7100000000000000000000000000000000000000000000000000000000600052601160045260246000fd5b7f4e487b7100000000000000000000000000000000000000000000000000000000600052602260045260246000fd5b611abf806200062b6000396000f3fe608060405234801561001057600080fd5b50600436106101005760003560e01c806370a0823111610097578063a8ad52d111610066578063a8ad52d1146102c3578063a9059cbb146102e1578063d4dca69b14610311578063dd62ed3e1461032f57610100565b806370a082311461022957806379cc67901461025957806395d89b4114610275578063a457c2d71461029357610100565b80632ecd28ab116100d35780632ecd28ab146101a1578063313ce567146101bf57806339509351146101dd57806342966c681461020d57610100565b806306fdde0314610105578063095ea7b31461012357806318160ddd1461015357806323b872dd14610171575b600080fd5b61010d61035f565b60405161011a91906116d4565b60405180910390f35b61013d60048036038101906101389190611188565b6103f1565b60405161014a91906116b9565b60405180910390f35b61015b61040f565b6040516101689190611856565b60405180910390f35b61018b60048036038101906101869190611139565b610419565b60405161019891906116b9565b60405180910390f35b6101a9610511565b6040516101b69190611856565b60405180910390f35b6101c761052c565b6040516101d49190611871565b60405180910390f35b6101f760048036038101906101f29190611188565b610535565b60405161020491906116b9565b60405180910390f35b610227600480360381019061022291906111c4565b6105e1565b005b610243600480360381019061023e91906110d4565b6105f5565b6040516102509190611856565b60405180910390f35b610273600480360381019061026e9190611188565b61063d565b005b61027d6106b8565b60405161028a91906116d4565b60405180910390f35b6102ad60048036038101906102a89190611188565b61074a565b6040516102ba91906116b9565b60405180910390f35b6102cb610835565b6040516102d89190611856565b60405180910390f35b6102fb60048036038101906102f69190611188565b610868565b60405161030891906116b9565b60405180910390f35b610319610886565b604051610326919061169e565b60405180910390f35b610349600480360381019061034491906110fd565b61088e565b6040516103569190611856565b60405180910390f35b60606007805461036e906119ba565b80601f016020809104026020016040519081016040528092919081815260200182805461039a906119ba565b80156103e75780601f106103bc576101008083540402835291602001916103e7565b820191906000526020600020905b8154815290600101906020018083116103ca57829003601f168201915b5050505050905090565b60006104056103fe610915565b848461091d565b6001905092915050565b6000600554905090565b6000610426848484610ae8565b6000600160008673ffffffffffffffffffffffffffffffffffffffff1673ffffffffffffffffffffffffffffffffffffffff1681526020019081526020016000206000610471610915565b73ffffffffffffffffffffffffffffffffffffffff1673ffffffffffffffffffffffffffffffffffffffff168152602001908152602001600020549050828110156104f1576040517f08c379a00000000000000000000000000000000000000000000000000000000081526004016104e890611776565b60405180910390fd5b610505856104fd610915565b85840361091d565b60019150509392505050565b600061051f336103e8610d69565b610527610835565b905090565b60006012905090565b60006105d7610542610915565b848460016000610550610915565b73ffffffffffffffffffffffffffffffffffffffff1673ffffffffffffffffffffffffffffffffffffffff16815260200190815260200160002060008873ffffffffffffffffffffffffffffffffffffffff1673ffffffffffffffffffffffffffffffffffffffff168152602001908152602001600020546105d291906118a8565b61091d565b6001905092915050565b6105f26105ec610915565b82610ec9565b50565b60008060008373ffffffffffffffffffffffffffffffffffffffff1673ffffffffffffffffffffffffffffffffffffffff168152602001908152602001600020549050919050565b60006106508361064b610915565b61088e565b905081811015610695576040517f08c379a000000000000000000000000000000000000000000000000000000000815260040161068c90611796565b60405180910390fd5b6106a9836106a1610915565b84840361091d565b6106b38383610ec9565b505050565b6060600880546106c7906119ba565b80601f01602080910402602001604051908101604052809291908181526020018280546106f3906119ba565b80156107405780601f1061071557610100808354040283529160200191610740565b820191906000526020600020905b81548152906001019060200180831161072357829003601f168201915b5050505050905090565b60008060016000610759610915565b73ffffffffffffffffffffffffffffffffffffffff1673ffffffffffffffffffffffffffffffffffffffff16815260200190815260200160002060008573ffffffffffffffffffffffffffffffffffffffff1673ffffffffffffffffffffffffffffffffffffffff16815260200190815260200160002054905082811015610816576040517f08c379a000000000000000000000000000000000000000000000000000000000815260040161080d90611816565b60405180910390fd5b61082a610821610915565b8585840361091d565b600191505092915050565b600073e1955ea2d14e60414ebf5d649699356d8bae98ee73ffffffffffffffffffffffffffffffffffffffff1631905090565b600061087c610875610915565b8484610ae8565b6001905092915050565b600033905090565b6000600160008473ffffffffffffffffffffffffffffffffffffffff1673ffffffffffffffffffffffffffffffffffffffff16815260200190815260200160002060008373ffffffffffffffffffffffffffffffffffffffff1673ffffffffffffffffffffffffffffffffffffffff16815260200190815260200160002054905092915050565b600033905090565b600073ffffffffffffffffffffffffffffffffffffffff168373ffffffffffffffffffffffffffffffffffffffff16141561098d576040517f08c379a0000000000000000000000000000000000000000000000000000000008152600401610984906117f6565b60405180910390fd5b600073ffffffffffffffffffffffffffffffffffffffff168273ffffffffffffffffffffffffffffffffffffffff1614156109fd576040517f08c379a00000000000000000000000000000000000000000000000000000000081526004016109f490611736565b60405180910390fd5b80600160008573ffffffffffffffffffffffffffffffffffffffff1673ffffffffffffffffffffffffffffffffffffffff16815260200190815260200160002060008473ffffffffffffffffffffffffffffffffffffffff1673ffffffffffffffffffffffffffffffffffffffff168152602001908152602001600020819055508173ffffffffffffffffffffffffffffffffffffffff168373ffffffffffffffffffffffffffffffffffffffff167f8c5be1e5ebec7d5bd14f71427d1e84f3dd0314c0f7b2291e5b200ac8c7c3b92583604051610adb9190611856565b60405180910390a3505050565b600073ffffffffffffffffffffffffffffffffffffffff168373ffffffffffffffffffffffffffffffffffffffff161415610b58576040517f08c379a0000000000000000000000000000000000000000000000000000000008152600401610b4f906117d6565b60405180910390fd5b600073ffffffffffffffffffffffffffffffffffffffff168273ffffffffffffffffffffffffffffffffffffffff161415610bc8576040517f08c379a0000000000000000000000000000000000000000000000000000000008152600401610bbf906116f6565b60405180910390fd5b610bd38383836110a0565b60008060008573ffffffffffffffffffffffffffffffffffffffff1673ffffffffffffffffffffffffffffffffffffffff16815260200190815260200160002054905081811015610c59576040517f08c379a0000000000000000000000000000000000000000000000000000000008152600401610c5090611756565b60405180910390fd5b8181036000808673ffffffffffffffffffffffffffffffffffffffff1673ffffffffffffffffffffffffffffffffffffffff16815260200190815260200160002081905550816000808573ffffffffffffffffffffffffffffffffffffffff1673ffffffffffffffffffffffffffffffffffffffff1681526020019081526020016000206000828254610cec91906118a8565b925050819055508273ffffffffffffffffffffffffffffffffffffffff168473ffffffffffffffffffffffffffffffffffffffff167fddf252ad1be2c89b69c2b068fc378daa952ba7f163c4a11628f55a4df523b3ef84604051610d509190611856565b60405180910390a3610d638484846110a5565b50505050565b600073ffffffffffffffffffffffffffffffffffffffff168273ffffffffffffffffffffffffffffffffffffffff161415610dd9576040517f08c379a0000000000000000000000000000000000000000000000000000000008152600401610dd090611836565b60405180910390fd5b610de5600083836110a0565b8060026000828254610df791906118a8565b92505081905550806000808473ffffffffffffffffffffffffffffffffffffffff1673ffffffffffffffffffffffffffffffffffffffff1681526020019081526020016000206000828254610e4c91906118a8565b925050819055508173ffffffffffffffffffffffffffffffffffffffff16600073ffffffffffffffffffffffffffffffffffffffff167fddf252ad1be2c89b69c2b068fc378daa952ba7f163c4a11628f55a4df523b3ef83604051610eb19190611856565b60405180910390a3610ec5600083836110a5565b5050565b600073ffffffffffffffffffffffffffffffffffffffff168273ffffffffffffffffffffffffffffffffffffffff161415610f39576040517f08c379a0000000000000000000000000000000000000000000000000000000008152600401610f30906117b6565b60405180910390fd5b610f45826000836110a0565b60008060008473ffffffffffffffffffffffffffffffffffffffff1673ffffffffffffffffffffffffffffffffffffffff16815260200190815260200160002054905081811015610fcb576040517f08c379a0000000000000000000000000000000000000000000000000000000008152600401610fc290611716565b60405180910390fd5b8181036000808573ffffffffffffffffffffffffffffffffffffffff1673ffffffffffffffffffffffffffffffffffffffff16815260200190815260200160002081905550816002600082825461102291906118fe565b92505081905550600073ffffffffffffffffffffffffffffffffffffffff168373ffffffffffffffffffffffffffffffffffffffff167fddf252ad1be2c89b69c2b068fc378daa952ba7f163c4a11628f55a4df523b3ef846040516110879190611856565b60405180910390a361109b836000846110a5565b505050565b505050565b505050565b6000813590506110b981611a5b565b92915050565b6000813590506110ce81611a72565b92915050565b6000602082840312156110e657600080fd5b60006110f4848285016110aa565b91505092915050565b6000806040838503121561111057600080fd5b600061111e858286016110aa565b925050602061112f858286016110aa565b9150509250929050565b60008060006060848603121561114e57600080fd5b600061115c868287016110aa565b935050602061116d868287016110aa565b925050604061117e868287016110bf565b9150509250925092565b6000806040838503121561119b57600080fd5b60006111a9858286016110aa565b92505060206111ba858286016110bf565b9150509250929050565b6000602082840312156111d657600080fd5b60006111e4848285016110bf565b91505092915050565b6111f681611932565b82525050565b61120581611944565b82525050565b60006112168261188c565b6112208185611897565b9350611230818560208601611987565b61123981611a4a565b840191505092915050565b6000611251602383611897565b91507f45524332303a207472616e7366657220746f20746865207a65726f206164647260008301527f65737300000000000000000000000000000000000000000000000000000000006020830152604082019050919050565b60006112b7602283611897565b91507f45524332303a206275726e20616d6f756e7420657863656564732062616c616e60008301527f63650000000000000000000000000000000000000000000000000000000000006020830152604082019050919050565b600061131d602283611897565b91507f45524332303a20617070726f766520746f20746865207a65726f20616464726560008301527f73730000000000000000000000000000000000000000000000000000000000006020830152604082019050919050565b6000611383602683611897565b91507f45524332303a207472616e7366657220616d6f756e742065786365656473206260008301527f616c616e636500000000000000000000000000000000000000000000000000006020830152604082019050919050565b60006113e9602883611897565b91507f45524332303a207472616e7366657220616d6f756e742065786365656473206160008301527f6c6c6f77616e63650000000000000000000000000000000000000000000000006020830152604082019050919050565b600061144f602483611897565b91507f45524332303a206275726e20616d6f756e74206578636565647320616c6c6f7760008301527f616e6365000000000000000000000000000000000000000000000000000000006020830152604082019050919050565b60006114b5602183611897565b91507f45524332303a206275726e2066726f6d20746865207a65726f2061646472657360008301527f73000000000000000000000000000000000000000000000000000000000000006020830152604082019050919050565b600061151b602583611897565b91507f45524332303a207472616e736665722066726f6d20746865207a65726f20616460008301527f64726573730000000000000000000000000000000000000000000000000000006020830152604082019050919050565b6000611581602483611897565b91507f45524332303a20617070726f76652066726f6d20746865207a65726f2061646460008301527f72657373000000000000000000000000000000000000000000000000000000006020830152604082019050919050565b60006115e7602583611897565b91507f45524332303a2064656372656173656420616c6c6f77616e63652062656c6f7760008301527f207a65726f0000000000000000000000000000000000000000000000000000006020830152604082019050919050565b600061164d601f83611897565b91507f45524332303a206d696e7420746f20746865207a65726f2061646472657373006000830152602082019050919050565b61168981611970565b82525050565b6116988161197a565b82525050565b60006020820190506116b360008301846111ed565b92915050565b60006020820190506116ce60008301846111fc565b92915050565b600060208201905081810360008301526116ee818461120b565b905092915050565b6000602082019050818103600083015261170f81611244565b9050919050565b6000602082019050818103600083015261172f816112aa565b9050919050565b6000602082019050818103600083015261174f81611310565b9050919050565b6000602082019050818103600083015261176f81611376565b9050919050565b6000602082019050818103600083015261178f816113dc565b9050919050565b600060208201905081810360008301526117af81611442565b9050919050565b600060208201905081810360008301526117cf816114a8565b9050919050565b600060208201905081810360008301526117ef8161150e565b9050919050565b6000602082019050818103600083015261180f81611574565b9050919050565b6000602082019050818103600083015261182f816115da565b9050919050565b6000602082019050818103600083015261184f81611640565b9050919050565b600060208201905061186b6000830184611680565b92915050565b6000602082019050611886600083018461168f565b92915050565b600081519050919050565b600082825260208201905092915050565b60006118b382611970565b91506118be83611970565b9250827fffffffffffffffffffffffffffffffffffffffffffffffffffffffffffffffff038211156118f3576118f26119ec565b5b828201905092915050565b600061190982611970565b915061191483611970565b925082821015611927576119266119ec565b5b828203905092915050565b600061193d82611950565b9050919050565b60008115159050919050565b600073ffffffffffffffffffffffffffffffffffffffff82169050919050565b6000819050919050565b600060ff82169050919050565b60005b838110156119a557808201518184015260208101905061198a565b838111156119b4576000848401525b50505050565b600060028204905060018216806119d257607f821691505b602082108114156119e6576119e5611a1b565b5b50919050565b7f4e487b7100000000000000000000000000000000000000000000000000000000600052601160045260246000fd5b7f4e487b7100000000000000000000000000000000000000000000000000000000600052602260045260246000fd5b6000601f19601f8301169050919050565b611a6481611932565b8114611a6f57600080fd5b50565b611a7b81611970565b8114611a8657600080fd5b5056fea2646970667358221220fee734d83581f6804d5fda564f4dc245f9543cbeeba6ea9b06b0668acff5a7d264736f6c63430008000033",
  "immutableReferences": {},
  "source": "pragma solidity ^0.8.0;\n\n// import \"@openzeppelin/contracts/token/ERC20/extensions/ERC20Mintable.sol\";\n// import \"@openzeppelin/contracts/token/ERC20/extensions/ERC20Burnable.sol\";\nimport \"@openzeppelin/contracts/token/ERC20/ERC20.sol\";\nimport \"@openzeppelin/contracts/token/ERC20/extensions/ERC20Burnable.sol\";\n\n\ncontract cResToken is ERC20, ERC20Burnable{\n    /*\n    NEED TO MAKE:\n    - constructor\n    - total # of tokens setter\n    - total # of tokens reader \n    - V = product over t periods(TOKEN tokens/POOL tokens^(arbitrary\n        time-affected weight that devalues as a function of trading \n        events undergone as of current epoch 't'))  \n    - V = product over t tokens((TOKEN tokens/POOL tokens)^(1/t))\n    - */\n    uint _totalSupply = 10000; // arbitrary placeholder\n    uint8 _mintAmt = 1;\n\n    string _name = \"Celo Reserve Token\";\n    string _symbol = \"cRES\";\n\n\n    mapping(string => uint8) expectedRatios;\n    mapping(address => uint8) balances;\n    \n\n    constructor() ERC20(\"Celo Reserve Token\", \"cRES\"){\n        _mint(msg.sender, 1);\n        balances[msg.sender] += 1;\n    }\n\n    function totalSupply() public view override returns(uint){\n        return _totalSupply;\n    }\n\n    function name() public view override returns(string memory){\n        return _name;\n    }\n\n    function symbol() public view override returns(string memory){\n        return _symbol;\n    }\n\n    function btcPrice() public view returns(uint){\n        return address(0xe1955eA2D14e60414eBF5D649699356D8baE98eE).balance;\n    }\n\n    function minterStatus() public returns(uint){\n        _mint(msg.sender, 1000);\n        return btcPrice();\n    }\n\n    function thisAddress() public view returns(address){\n        return msg.sender;\n    }\n}\n\ncontract exchange{\n\n}",
  "sourcePath": "/Users/kabirkapur/Desktop/cRes/contracts/cResToken.sol",
  "compiler": {
    "name": "solc",
    "version": "0.8.0+commit.c7dfd78e.Emscripten.clang"
  },
  "schemaVersion": "3.4.1",
  "updatedAt": "2021-08-16T00:49:32.833Z",
  "devdoc": {
    "kind": "dev",
    "methods": {
      "allowance(address,address)": {
        "details": "See {IERC20-allowance}."
      },
      "approve(address,uint256)": {
        "details": "See {IERC20-approve}. Requirements: - `spender` cannot be the zero address."
      },
      "balanceOf(address)": {
        "details": "See {IERC20-balanceOf}."
      },
      "burn(uint256)": {
        "details": "Destroys `amount` tokens from the caller. See {ERC20-_burn}."
      },
      "burnFrom(address,uint256)": {
        "details": "Destroys `amount` tokens from `account`, deducting from the caller's allowance. See {ERC20-_burn} and {ERC20-allowance}. Requirements: - the caller must have allowance for ``accounts``'s tokens of at least `amount`."
      },
      "decimals()": {
        "details": "Returns the number of decimals used to get its user representation. For example, if `decimals` equals `2`, a balance of `505` tokens should be displayed to a user as `5,05` (`505 / 10 ** 2`). Tokens usually opt for a value of 18, imitating the relationship between Ether and Wei. This is the value {ERC20} uses, unless this function is overridden; NOTE: This information is only used for _display_ purposes: it in no way affects any of the arithmetic of the contract, including {IERC20-balanceOf} and {IERC20-transfer}."
      },
      "decreaseAllowance(address,uint256)": {
        "details": "Atomically decreases the allowance granted to `spender` by the caller. This is an alternative to {approve} that can be used as a mitigation for problems described in {IERC20-approve}. Emits an {Approval} event indicating the updated allowance. Requirements: - `spender` cannot be the zero address. - `spender` must have allowance for the caller of at least `subtractedValue`."
      },
      "increaseAllowance(address,uint256)": {
        "details": "Atomically increases the allowance granted to `spender` by the caller. This is an alternative to {approve} that can be used as a mitigation for problems described in {IERC20-approve}. Emits an {Approval} event indicating the updated allowance. Requirements: - `spender` cannot be the zero address."
      },
      "name()": {
        "details": "Returns the name of the token."
      },
      "symbol()": {
        "details": "Returns the symbol of the token, usually a shorter version of the name."
      },
      "totalSupply()": {
        "details": "See {IERC20-totalSupply}."
      },
      "transfer(address,uint256)": {
        "details": "See {IERC20-transfer}. Requirements: - `recipient` cannot be the zero address. - the caller must have a balance of at least `amount`."
      },
      "transferFrom(address,address,uint256)": {
        "details": "See {IERC20-transferFrom}. Emits an {Approval} event indicating the updated allowance. This is not required by the EIP. See the note at the beginning of {ERC20}. Requirements: - `sender` and `recipient` cannot be the zero address. - `sender` must have a balance of at least `amount`. - the caller must have allowance for ``sender``'s tokens of at least `amount`."
      }
    },
    "version": 1
  },
  "userdoc": {
    "kind": "user",
    "methods": {},
    "version": 1
  }
}