{
  "contractName": "cResToken",
  "abi": [
    {
      "inputs": [],
      "stateMutability": "nonpayable",
      "type": "constructor"
    },
    {
      "anonymous": false,
      "inputs": [
        {
          "indexed": true,
          "internalType": "address",
          "name": "owner",
          "type": "address"
        },
        {
          "indexed": true,
          "internalType": "address",
          "name": "spender",
          "type": "address"
        },
        {
          "indexed": false,
          "internalType": "uint256",
          "name": "value",
          "type": "uint256"
        }
      ],
      "name": "Approval",
      "type": "event"
    },
    {
      "anonymous": false,
      "inputs": [
        {
          "indexed": true,
          "internalType": "address",
          "name": "from",
          "type": "address"
        },
        {
          "indexed": true,
          "internalType": "address",
          "name": "to",
          "type": "address"
        },
        {
          "indexed": false,
          "internalType": "uint256",
          "name": "value",
          "type": "uint256"
        }
      ],
      "name": "Transfer",
      "type": "event"
    },
    {
      "inputs": [
        {
          "internalType": "address",
          "name": "owner",
          "type": "address"
        },
        {
          "internalType": "address",
          "name": "spender",
          "type": "address"
        }
      ],
      "name": "allowance",
      "outputs": [
        {
          "internalType": "uint256",
          "name": "",
          "type": "uint256"
        }
      ],
      "stateMutability": "view",
      "type": "function",
      "constant": true
    },
    {
      "inputs": [
        {
          "internalType": "address",
          "name": "spender",
          "type": "address"
        },
        {
          "internalType": "uint256",
          "name": "amount",
          "type": "uint256"
        }
      ],
      "name": "approve",
      "outputs": [
        {
          "internalType": "bool",
          "name": "",
          "type": "bool"
        }
      ],
      "stateMutability": "nonpayable",
      "type": "function"
    },
    {
      "inputs": [
        {
          "internalType": "address",
          "name": "account",
          "type": "address"
        }
      ],
      "name": "balanceOf",
      "outputs": [
        {
          "internalType": "uint256",
          "name": "",
          "type": "uint256"
        }
      ],
      "stateMutability": "view",
      "type": "function",
      "constant": true
    },
    {
      "inputs": [
        {
          "internalType": "uint256",
          "name": "amount",
          "type": "uint256"
        }
      ],
      "name": "burn",
      "outputs": [],
      "stateMutability": "nonpayable",
      "type": "function"
    },
    {
      "inputs": [
        {
          "internalType": "address",
          "name": "account",
          "type": "address"
        },
        {
          "internalType": "uint256",
          "name": "amount",
          "type": "uint256"
        }
      ],
      "name": "burnFrom",
      "outputs": [],
      "stateMutability": "nonpayable",
      "type": "function"
    },
    {
      "inputs": [],
      "name": "decimals",
      "outputs": [
        {
          "internalType": "uint8",
          "name": "",
          "type": "uint8"
        }
      ],
      "stateMutability": "view",
      "type": "function",
      "constant": true
    },
    {
      "inputs": [
        {
          "internalType": "address",
          "name": "spender",
          "type": "address"
        },
        {
          "internalType": "uint256",
          "name": "subtractedValue",
          "type": "uint256"
        }
      ],
      "name": "decreaseAllowance",
      "outputs": [
        {
          "internalType": "bool",
          "name": "",
          "type": "bool"
        }
      ],
      "stateMutability": "nonpayable",
      "type": "function"
    },
    {
      "inputs": [
        {
          "internalType": "address",
          "name": "spender",
          "type": "address"
        },
        {
          "internalType": "uint256",
          "name": "addedValue",
          "type": "uint256"
        }
      ],
      "name": "increaseAllowance",
      "outputs": [
        {
          "internalType": "bool",
          "name": "",
          "type": "bool"
        }
      ],
      "stateMutability": "nonpayable",
      "type": "function"
    },
    {
      "inputs": [
        {
          "internalType": "address",
          "name": "recipient",
          "type": "address"
        },
        {
          "internalType": "uint256",
          "name": "amount",
          "type": "uint256"
        }
      ],
      "name": "transfer",
      "outputs": [
        {
          "internalType": "bool",
          "name": "",
          "type": "bool"
        }
      ],
      "stateMutability": "nonpayable",
      "type": "function"
    },
    {
      "inputs": [
        {
          "internalType": "address",
          "name": "sender",
          "type": "address"
        },
        {
          "internalType": "address",
          "name": "recipient",
          "type": "address"
        },
        {
          "internalType": "uint256",
          "name": "amount",
          "type": "uint256"
        }
      ],
      "name": "transferFrom",
      "outputs": [
        {
          "internalType": "bool",
          "name": "",
          "type": "bool"
        }
      ],
      "stateMutability": "nonpayable",
      "type": "function"
    },
    {
      "inputs": [],
      "name": "totalSupply",
      "outputs": [
        {
          "internalType": "uint256",
          "name": "",
          "type": "uint256"
        }
      ],
      "stateMutability": "view",
      "type": "function",
      "constant": true
    },
    {
      "inputs": [],
      "name": "name",
      "outputs": [
        {
          "internalType": "string",
          "name": "",
          "type": "string"
        }
      ],
      "stateMutability": "view",
      "type": "function",
      "constant": true
    },
    {
      "inputs": [],
      "name": "symbol",
      "outputs": [
        {
          "internalType": "string",
          "name": "",
          "type": "string"
        }
      ],
      "stateMutability": "view",
      "type": "function",
      "constant": true
    },
    {
      "inputs": [],
      "name": "btcPrice",
      "outputs": [
        {
          "internalType": "uint256",
          "name": "",
          "type": "uint256"
        }
      ],
      "stateMutability": "view",
      "type": "function",
      "constant": true
    },
    {
      "inputs": [],
      "name": "minterStatus",
      "outputs": [
        {
          "internalType": "uint256",
          "name": "",
          "type": "uint256"
        }
      ],
      "stateMutability": "nonpayable",
      "type": "function"
    },
    {
      "inputs": [],
      "name": "thisAddress",
      "outputs": [
        {
          "internalType": "address",
          "name": "",
          "type": "address"
        }
      ],
      "stateMutability": "view",
      "type": "function",
      "constant": true
    },
    {
      "inputs": [],
      "name": "senderAddress",
      "outputs": [
        {
          "internalType": "address",
          "name": "",
          "type": "address"
        }
      ],
      "stateMutability": "view",
      "type": "function",
      "constant": true
    },
    {
      "inputs": [
        {
          "internalType": "address",
          "name": "account",
          "type": "address"
        },
        {
          "internalType": "uint256",
          "name": "amount",
          "type": "uint256"
        }
      ],
      "name": "mint",
      "outputs": [],
      "stateMutability": "nonpayable",
      "type": "function"
    }
  ],
  "bytecode": "0x60806040526127106005556001600660006101000a81548160ff021916908360ff1602179055506040518060400160405280601281526020017f43656c6f205265736572766520546f6b656e0000000000000000000000000000815250600790805190602001906200007392919062000382565b506040518060400160405280600481526020017f635245530000000000000000000000000000000000000000000000000000000081525060089080519060200190620000c192919062000382565b50348015620000cf57600080fd5b506040518060400160405280601281526020017f43656c6f205265736572766520546f6b656e00000000000000000000000000008152506040518060400160405280600481526020017f635245530000000000000000000000000000000000000000000000000000000081525081600390805190602001906200015492919062000382565b5080600490805190602001906200016d92919062000382565b50505062000183336001620001ff60201b60201c565b6001600a60003373ffffffffffffffffffffffffffffffffffffffff1673ffffffffffffffffffffffffffffffffffffffff16815260200190815260200160002060008282829054906101000a900460ff16620001e1919062000532565b92506101000a81548160ff021916908360ff1602179055506200061b565b600073ffffffffffffffffffffffffffffffffffffffff168273ffffffffffffffffffffffffffffffffffffffff16141562000272576040517f08c379a0000000000000000000000000000000000000000000000000000000008152600401620002699062000485565b60405180910390fd5b62000286600083836200037860201b60201c565b80600260008282546200029a9190620004d5565b92505081905550806000808473ffffffffffffffffffffffffffffffffffffffff1673ffffffffffffffffffffffffffffffffffffffff1681526020019081526020016000206000828254620002f19190620004d5565b925050819055508173ffffffffffffffffffffffffffffffffffffffff16600073ffffffffffffffffffffffffffffffffffffffff167fddf252ad1be2c89b69c2b068fc378daa952ba7f163c4a11628f55a4df523b3ef83604051620003589190620004a7565b60405180910390a362000374600083836200037d60201b60201c565b5050565b505050565b505050565b828054620003909062000587565b90600052602060002090601f016020900481019282620003b4576000855562000400565b82601f10620003cf57805160ff191683800117855562000400565b8280016001018555821562000400579182015b82811115620003ff578251825591602001919060010190620003e2565b5b5090506200040f919062000413565b5090565b5b808211156200042e57600081600090555060010162000414565b5090565b600062000441601f83620004c4565b91507f45524332303a206d696e7420746f20746865207a65726f2061646472657373006000830152602082019050919050565b6200047f8162000570565b82525050565b60006020820190508181036000830152620004a08162000432565b9050919050565b6000602082019050620004be600083018462000474565b92915050565b600082825260208201905092915050565b6000620004e28262000570565b9150620004ef8362000570565b9250827fffffffffffffffffffffffffffffffffffffffffffffffffffffffffffffffff03821115620005275762000526620005bd565b5b828201905092915050565b60006200053f826200057a565b91506200054c836200057a565b92508260ff03821115620005655762000564620005bd565b5b828201905092915050565b6000819050919050565b600060ff82169050919050565b60006002820490506001821680620005a057607f821691505b60208210811415620005b757620005b6620005ec565b5b50919050565b7f4e487b7100000000000000000000000000000000000000000000000000000000600052601160045260246000fd5b7f4e487b7100000000000000000000000000000000000000000000000000000000600052602260045260246000fd5b611b25806200062b6000396000f3fe608060405234801561001057600080fd5b50600436106101165760003560e01c80634fc84791116100a2578063a457c2d711610071578063a457c2d7146102e3578063a8ad52d114610313578063a9059cbb14610331578063d4dca69b14610361578063dd62ed3e1461037f57610116565b80634fc847911461025b57806370a082311461027957806379cc6790146102a957806395d89b41146102c557610116565b80632ecd28ab116100e95780632ecd28ab146101b7578063313ce567146101d557806339509351146101f357806340c10f191461022357806342966c681461023f57610116565b806306fdde031461011b578063095ea7b31461013957806318160ddd1461016957806323b872dd14610187575b600080fd5b6101236103af565b604051610130919061173a565b60405180910390f35b610153600480360381019061014e91906111ee565b610441565b604051610160919061171f565b60405180910390f35b61017161045f565b60405161017e91906118bc565b60405180910390f35b6101a1600480360381019061019c919061119f565b610469565b6040516101ae919061171f565b60405180910390f35b6101bf610561565b6040516101cc91906118bc565b60405180910390f35b6101dd61057c565b6040516101ea91906118d7565b60405180910390f35b61020d600480360381019061020891906111ee565b610585565b60405161021a919061171f565b60405180910390f35b61023d600480360381019061023891906111ee565b610631565b005b6102596004803603810190610254919061122a565b61063f565b005b610263610653565b6040516102709190611704565b60405180910390f35b610293600480360381019061028e919061113a565b61065b565b6040516102a091906118bc565b60405180910390f35b6102c360048036038101906102be91906111ee565b6106a3565b005b6102cd61071e565b6040516102da919061173a565b60405180910390f35b6102fd60048036038101906102f891906111ee565b6107b0565b60405161030a919061171f565b60405180910390f35b61031b61089b565b60405161032891906118bc565b60405180910390f35b61034b600480360381019061034691906111ee565b6108ce565b604051610358919061171f565b60405180910390f35b6103696108ec565b6040516103769190611704565b60405180910390f35b61039960048036038101906103949190611163565b6108f4565b6040516103a691906118bc565b60405180910390f35b6060600780546103be90611a20565b80601f01602080910402602001604051908101604052809291908181526020018280546103ea90611a20565b80156104375780601f1061040c57610100808354040283529160200191610437565b820191906000526020600020905b81548152906001019060200180831161041a57829003601f168201915b5050505050905090565b600061045561044e61097b565b8484610983565b6001905092915050565b6000600554905090565b6000610476848484610b4e565b6000600160008673ffffffffffffffffffffffffffffffffffffffff1673ffffffffffffffffffffffffffffffffffffffff16815260200190815260200160002060006104c161097b565b73ffffffffffffffffffffffffffffffffffffffff1673ffffffffffffffffffffffffffffffffffffffff16815260200190815260200160002054905082811015610541576040517f08c379a0000000000000000000000000000000000000000000000000000000008152600401610538906117dc565b60405180910390fd5b6105558561054d61097b565b858403610983565b60019150509392505050565b600061056f336103e8610dcf565b61057761089b565b905090565b60006012905090565b600061062761059261097b565b8484600160006105a061097b565b73ffffffffffffffffffffffffffffffffffffffff1673ffffffffffffffffffffffffffffffffffffffff16815260200190815260200160002060008873ffffffffffffffffffffffffffffffffffffffff1673ffffffffffffffffffffffffffffffffffffffff16815260200190815260200160002054610622919061190e565b610983565b6001905092915050565b61063b8282610dcf565b5050565b61065061064a61097b565b82610f2f565b50565b600033905090565b60008060008373ffffffffffffffffffffffffffffffffffffffff1673ffffffffffffffffffffffffffffffffffffffff168152602001908152602001600020549050919050565b60006106b6836106b161097b565b6108f4565b9050818110156106fb576040517f08c379a00000000000000000000000000000000000000000000000000000000081526004016106f2906117fc565b60405180910390fd5b61070f8361070761097b565b848403610983565b6107198383610f2f565b505050565b60606008805461072d90611a20565b80601f016020809104026020016040519081016040528092919081815260200182805461075990611a20565b80156107a65780601f1061077b576101008083540402835291602001916107a6565b820191906000526020600020905b81548152906001019060200180831161078957829003601f168201915b5050505050905090565b600080600160006107bf61097b565b73ffffffffffffffffffffffffffffffffffffffff1673ffffffffffffffffffffffffffffffffffffffff16815260200190815260200160002060008573ffffffffffffffffffffffffffffffffffffffff1673ffffffffffffffffffffffffffffffffffffffff1681526020019081526020016000205490508281101561087c576040517f08c379a00000000000000000000000000000000000000000000000000000000081526004016108739061187c565b60405180910390fd5b61089061088761097b565b85858403610983565b600191505092915050565b600073e1955ea2d14e60414ebf5d649699356d8bae98ee73ffffffffffffffffffffffffffffffffffffffff1631905090565b60006108e26108db61097b565b8484610b4e565b6001905092915050565b600030905090565b6000600160008473ffffffffffffffffffffffffffffffffffffffff1673ffffffffffffffffffffffffffffffffffffffff16815260200190815260200160002060008373ffffffffffffffffffffffffffffffffffffffff1673ffffffffffffffffffffffffffffffffffffffff16815260200190815260200160002054905092915050565b600033905090565b600073ffffffffffffffffffffffffffffffffffffffff168373ffffffffffffffffffffffffffffffffffffffff1614156109f3576040517f08c379a00000000000000000000000000000000000000000000000000000000081526004016109ea9061185c565b60405180910390fd5b600073ffffffffffffffffffffffffffffffffffffffff168273ffffffffffffffffffffffffffffffffffffffff161415610a63576040517f08c379a0000000000000000000000000000000000000000000000000000000008152600401610a5a9061179c565b60405180910390fd5b80600160008573ffffffffffffffffffffffffffffffffffffffff1673ffffffffffffffffffffffffffffffffffffffff16815260200190815260200160002060008473ffffffffffffffffffffffffffffffffffffffff1673ffffffffffffffffffffffffffffffffffffffff168152602001908152602001600020819055508173ffffffffffffffffffffffffffffffffffffffff168373ffffffffffffffffffffffffffffffffffffffff167f8c5be1e5ebec7d5bd14f71427d1e84f3dd0314c0f7b2291e5b200ac8c7c3b92583604051610b4191906118bc565b60405180910390a3505050565b600073ffffffffffffffffffffffffffffffffffffffff168373ffffffffffffffffffffffffffffffffffffffff161415610bbe576040517f08c379a0000000000000000000000000000000000000000000000000000000008152600401610bb59061183c565b60405180910390fd5b600073ffffffffffffffffffffffffffffffffffffffff168273ffffffffffffffffffffffffffffffffffffffff161415610c2e576040517f08c379a0000000000000000000000000000000000000000000000000000000008152600401610c259061175c565b60405180910390fd5b610c39838383611106565b60008060008573ffffffffffffffffffffffffffffffffffffffff1673ffffffffffffffffffffffffffffffffffffffff16815260200190815260200160002054905081811015610cbf576040517f08c379a0000000000000000000000000000000000000000000000000000000008152600401610cb6906117bc565b60405180910390fd5b8181036000808673ffffffffffffffffffffffffffffffffffffffff1673ffffffffffffffffffffffffffffffffffffffff16815260200190815260200160002081905550816000808573ffffffffffffffffffffffffffffffffffffffff1673ffffffffffffffffffffffffffffffffffffffff1681526020019081526020016000206000828254610d52919061190e565b925050819055508273ffffffffffffffffffffffffffffffffffffffff168473ffffffffffffffffffffffffffffffffffffffff167fddf252ad1be2c89b69c2b068fc378daa952ba7f163c4a11628f55a4df523b3ef84604051610db691906118bc565b60405180910390a3610dc984848461110b565b50505050565b600073ffffffffffffffffffffffffffffffffffffffff168273ffffffffffffffffffffffffffffffffffffffff161415610e3f576040517f08c379a0000000000000000000000000000000000000000000000000000000008152600401610e369061189c565b60405180910390fd5b610e4b60008383611106565b8060026000828254610e5d919061190e565b92505081905550806000808473ffffffffffffffffffffffffffffffffffffffff1673ffffffffffffffffffffffffffffffffffffffff1681526020019081526020016000206000828254610eb2919061190e565b925050819055508173ffffffffffffffffffffffffffffffffffffffff16600073ffffffffffffffffffffffffffffffffffffffff167fddf252ad1be2c89b69c2b068fc378daa952ba7f163c4a11628f55a4df523b3ef83604051610f1791906118bc565b60405180910390a3610f2b6000838361110b565b5050565b600073ffffffffffffffffffffffffffffffffffffffff168273ffffffffffffffffffffffffffffffffffffffff161415610f9f576040517f08c379a0000000000000000000000000000000000000000000000000000000008152600401610f969061181c565b60405180910390fd5b610fab82600083611106565b60008060008473ffffffffffffffffffffffffffffffffffffffff1673ffffffffffffffffffffffffffffffffffffffff16815260200190815260200160002054905081811015611031576040517f08c379a00000000000000000000000000000000000000000000000000000000081526004016110289061177c565b60405180910390fd5b8181036000808573ffffffffffffffffffffffffffffffffffffffff1673ffffffffffffffffffffffffffffffffffffffff1681526020019081526020016000208190555081600260008282546110889190611964565b92505081905550600073ffffffffffffffffffffffffffffffffffffffff168373ffffffffffffffffffffffffffffffffffffffff167fddf252ad1be2c89b69c2b068fc378daa952ba7f163c4a11628f55a4df523b3ef846040516110ed91906118bc565b60405180910390a36111018360008461110b565b505050565b505050565b505050565b60008135905061111f81611ac1565b92915050565b60008135905061113481611ad8565b92915050565b60006020828403121561114c57600080fd5b600061115a84828501611110565b91505092915050565b6000806040838503121561117657600080fd5b600061118485828601611110565b925050602061119585828601611110565b9150509250929050565b6000806000606084860312156111b457600080fd5b60006111c286828701611110565b93505060206111d386828701611110565b92505060406111e486828701611125565b9150509250925092565b6000806040838503121561120157600080fd5b600061120f85828601611110565b925050602061122085828601611125565b9150509250929050565b60006020828403121561123c57600080fd5b600061124a84828501611125565b91505092915050565b61125c81611998565b82525050565b61126b816119aa565b82525050565b600061127c826118f2565b61128681856118fd565b93506112968185602086016119ed565b61129f81611ab0565b840191505092915050565b60006112b76023836118fd565b91507f45524332303a207472616e7366657220746f20746865207a65726f206164647260008301527f65737300000000000000000000000000000000000000000000000000000000006020830152604082019050919050565b600061131d6022836118fd565b91507f45524332303a206275726e20616d6f756e7420657863656564732062616c616e60008301527f63650000000000000000000000000000000000000000000000000000000000006020830152604082019050919050565b60006113836022836118fd565b91507f45524332303a20617070726f766520746f20746865207a65726f20616464726560008301527f73730000000000000000000000000000000000000000000000000000000000006020830152604082019050919050565b60006113e96026836118fd565b91507f45524332303a207472616e7366657220616d6f756e742065786365656473206260008301527f616c616e636500000000000000000000000000000000000000000000000000006020830152604082019050919050565b600061144f6028836118fd565b91507f45524332303a207472616e7366657220616d6f756e742065786365656473206160008301527f6c6c6f77616e63650000000000000000000000000000000000000000000000006020830152604082019050919050565b60006114b56024836118fd565b91507f45524332303a206275726e20616d6f756e74206578636565647320616c6c6f7760008301527f616e6365000000000000000000000000000000000000000000000000000000006020830152604082019050919050565b600061151b6021836118fd565b91507f45524332303a206275726e2066726f6d20746865207a65726f2061646472657360008301527f73000000000000000000000000000000000000000000000000000000000000006020830152604082019050919050565b60006115816025836118fd565b91507f45524332303a207472616e736665722066726f6d20746865207a65726f20616460008301527f64726573730000000000000000000000000000000000000000000000000000006020830152604082019050919050565b60006115e76024836118fd565b91507f45524332303a20617070726f76652066726f6d20746865207a65726f2061646460008301527f72657373000000000000000000000000000000000000000000000000000000006020830152604082019050919050565b600061164d6025836118fd565b91507f45524332303a2064656372656173656420616c6c6f77616e63652062656c6f7760008301527f207a65726f0000000000000000000000000000000000000000000000000000006020830152604082019050919050565b60006116b3601f836118fd565b91507f45524332303a206d696e7420746f20746865207a65726f2061646472657373006000830152602082019050919050565b6116ef816119d6565b82525050565b6116fe816119e0565b82525050565b60006020820190506117196000830184611253565b92915050565b60006020820190506117346000830184611262565b92915050565b600060208201905081810360008301526117548184611271565b905092915050565b60006020820190508181036000830152611775816112aa565b9050919050565b6000602082019050818103600083015261179581611310565b9050919050565b600060208201905081810360008301526117b581611376565b9050919050565b600060208201905081810360008301526117d5816113dc565b9050919050565b600060208201905081810360008301526117f581611442565b9050919050565b60006020820190508181036000830152611815816114a8565b9050919050565b600060208201905081810360008301526118358161150e565b9050919050565b6000602082019050818103600083015261185581611574565b9050919050565b60006020820190508181036000830152611875816115da565b9050919050565b6000602082019050818103600083015261189581611640565b9050919050565b600060208201905081810360008301526118b5816116a6565b9050919050565b60006020820190506118d160008301846116e6565b92915050565b60006020820190506118ec60008301846116f5565b92915050565b600081519050919050565b600082825260208201905092915050565b6000611919826119d6565b9150611924836119d6565b9250827fffffffffffffffffffffffffffffffffffffffffffffffffffffffffffffffff0382111561195957611958611a52565b5b828201905092915050565b600061196f826119d6565b915061197a836119d6565b92508282101561198d5761198c611a52565b5b828203905092915050565b60006119a3826119b6565b9050919050565b60008115159050919050565b600073ffffffffffffffffffffffffffffffffffffffff82169050919050565b6000819050919050565b600060ff82169050919050565b60005b83811015611a0b5780820151818401526020810190506119f0565b83811115611a1a576000848401525b50505050565b60006002820490506001821680611a3857607f821691505b60208210811415611a4c57611a4b611a81565b5b50919050565b7f4e487b7100000000000000000000000000000000000000000000000000000000600052601160045260246000fd5b7f4e487b7100000000000000000000000000000000000000000000000000000000600052602260045260246000fd5b6000601f19601f8301169050919050565b611aca81611998565b8114611ad557600080fd5b50565b611ae1816119d6565b8114611aec57600080fd5b5056fea2646970667358221220d1fa8497eb8b858db897655132faf39706e640106f5430ffcc7f9f71e083039064736f6c63430008000033",
  "immutableReferences": {},
  "source": "pragma solidity ^0.8.0;\n\n// hash:\n// 0x3591A63b1986AE4080a196DF6C1b20A07c34678f\n\n// mnemonic:\n/*rapid exhibit minor hero staff want shed \n// stock just glimpse vapor discover brown \n// fitness omit slush entry print advice antenna\n senior gate slim carbon */\n\n// import \"@openzeppelin/contracts/token/ERC20/extensions/ERC20Mintable.sol\";\n// import \"@openzeppelin/contracts/token/ERC20/extensions/ERC20Burnable.sol\";\nimport \"@openzeppelin/contracts/token/ERC20/ERC20.sol\";\nimport \"@openzeppelin/contracts/token/ERC20/extensions/ERC20Burnable.sol\";\n\n\ncontract cResToken is ERC20, ERC20Burnable{\n    /*\n    NEED TO MAKE:\n    - constructor\n    - total # of tokens setter\n    - total # of tokens reader \n    - V = product over t periods(TOKEN tokens/POOL tokens^(arbitrary\n        time-affected weight that devalues as a function of trading \n        events undergone as of current epoch 't'))  \n    - V = product over t tokens((TOKEN tokens/POOL tokens)^(1/t))\n    - */\n    uint _totalSupply = 10000; // arbitrary placeholder\n    uint8 _mintAmt = 1;\n\n    string _name = \"Celo Reserve Token\";\n    string _symbol = \"cRES\";\n\n\n    mapping(string => uint8) expectedRatios;\n    mapping(address => uint8) balances;\n    \n\n    constructor() ERC20(\"Celo Reserve Token\", \"cRES\"){\n        _mint(msg.sender, 1);\n        balances[msg.sender] += 1;\n    }\n\n    function totalSupply() public view override returns(uint){\n        return _totalSupply;\n    }\n\n    function name() public view override returns(string memory){\n        return _name;\n    }\n\n    function symbol() public view override returns(string memory){\n        return _symbol;\n    }\n\n    function btcPrice() public view returns(uint){\n        return address(0xe1955eA2D14e60414eBF5D649699356D8baE98eE).balance;\n    }\n\n    function minterStatus() public returns(uint){\n        _mint(msg.sender, 1000);\n        return btcPrice();\n    }\n\n    function thisAddress() public view returns(address){\n        return address(this);\n    }\n    \n    function senderAddress() public view returns(address){\n        return msg.sender;\n    }\n\n    function mint(address account, uint256 amount) public {\n        _mint(account, amount);\n    }\n}",
  "sourcePath": "/Users/kabirkapur/Desktop/cRes/contracts/cResToken.sol",
  "compiler": {
    "name": "solc",
    "version": "0.8.0+commit.c7dfd78e.Emscripten.clang"
  },
  "schemaVersion": "3.4.1",
  "updatedAt": "2021-08-19T19:15:41.726Z",
  "networkType": "ethereum",
  "devdoc": {
    "kind": "dev",
    "methods": {
      "allowance(address,address)": {
        "details": "See {IERC20-allowance}."
      },
      "approve(address,uint256)": {
        "details": "See {IERC20-approve}. Requirements: - `spender` cannot be the zero address."
      },
      "balanceOf(address)": {
        "details": "See {IERC20-balanceOf}."
      },
      "burn(uint256)": {
        "details": "Destroys `amount` tokens from the caller. See {ERC20-_burn}."
      },
      "burnFrom(address,uint256)": {
        "details": "Destroys `amount` tokens from `account`, deducting from the caller's allowance. See {ERC20-_burn} and {ERC20-allowance}. Requirements: - the caller must have allowance for ``accounts``'s tokens of at least `amount`."
      },
      "decimals()": {
        "details": "Returns the number of decimals used to get its user representation. For example, if `decimals` equals `2`, a balance of `505` tokens should be displayed to a user as `5,05` (`505 / 10 ** 2`). Tokens usually opt for a value of 18, imitating the relationship between Ether and Wei. This is the value {ERC20} uses, unless this function is overridden; NOTE: This information is only used for _display_ purposes: it in no way affects any of the arithmetic of the contract, including {IERC20-balanceOf} and {IERC20-transfer}."
      },
      "decreaseAllowance(address,uint256)": {
        "details": "Atomically decreases the allowance granted to `spender` by the caller. This is an alternative to {approve} that can be used as a mitigation for problems described in {IERC20-approve}. Emits an {Approval} event indicating the updated allowance. Requirements: - `spender` cannot be the zero address. - `spender` must have allowance for the caller of at least `subtractedValue`."
      },
      "increaseAllowance(address,uint256)": {
        "details": "Atomically increases the allowance granted to `spender` by the caller. This is an alternative to {approve} that can be used as a mitigation for problems described in {IERC20-approve}. Emits an {Approval} event indicating the updated allowance. Requirements: - `spender` cannot be the zero address."
      },
      "name()": {
        "details": "Returns the name of the token."
      },
      "symbol()": {
        "details": "Returns the symbol of the token, usually a shorter version of the name."
      },
      "totalSupply()": {
        "details": "See {IERC20-totalSupply}."
      },
      "transfer(address,uint256)": {
        "details": "See {IERC20-transfer}. Requirements: - `recipient` cannot be the zero address. - the caller must have a balance of at least `amount`."
      },
      "transferFrom(address,address,uint256)": {
        "details": "See {IERC20-transferFrom}. Emits an {Approval} event indicating the updated allowance. This is not required by the EIP. See the note at the beginning of {ERC20}. Requirements: - `sender` and `recipient` cannot be the zero address. - `sender` must have a balance of at least `amount`. - the caller must have allowance for ``sender``'s tokens of at least `amount`."
      }
    },
    "version": 1
  },
  "userdoc": {
    "kind": "user",
    "methods": {},
    "version": 1
  }
}