{
  "contractName": "cResToken",
  "abi": [
    {
      "inputs": [
        {
          "internalType": "uint256",
          "name": "celoRatio",
          "type": "uint256"
        },
        {
          "internalType": "uint256",
          "name": "celoInReserve",
          "type": "uint256"
        },
        {
          "internalType": "uint256",
          "name": "totalInReserve",
          "type": "uint256"
        }
      ],
      "name": "spotPrice",
      "outputs": [
        {
          "internalType": "uint256",
          "name": "spotPricecRES",
          "type": "uint256"
        }
      ],
      "stateMutability": "view",
      "type": "function"
    },
    {
      "inputs": [],
      "name": "supply",
      "outputs": [
        {
          "internalType": "uint256",
          "name": "_totalSupply",
          "type": "uint256"
        }
      ],
      "stateMutability": "view",
      "type": "function"
    }
  ],
  "bytecode": "0x608060405261271060005534801561001657600080fd5b50610116806100266000396000f3fe6080604052348015600f57600080fd5b506004361060325760003560e01c8063047fc9aa146037578063d5f638c8146053575b600080fd5b603d60a6565b6040518082815260200191505060405180910390f35b609060048036036060811015606757600080fd5b8101908080359060200190929190803590602001909291908035906020019092919050505060ae565b6040518082815260200191505060405180910390f35b600080905090565b6000828203846001038160bd57fe5b04836064868160c857fe5b048160cf57fe5b048160d657fe5b049050939250505056fea2646970667358221220a3e65397bed785bcdb310a04886e9a97718e73240b195b9808e652cc2085b88964736f6c63430006000033",
  "source": "pragma solidity ^0.6.0;\n\nimport \"@chainlink/contracts/src/v0.6/ChainlinkClient.sol\"; // importing v0.6 (stable)\n\ncontract cResToken{\n    /*\n    NEED TO MAKE:\n    - constructor\n    - total # of tokens setter\n    - total # of tokens reader \n    - V = product over t periods(TOKEN tokens/POOL tokens^(arbitrary\n        time-affected weight that devalues as a function of trading \n        events undergone as of current epoch 't'))  \n    - V = product over t tokens((TOKEN tokens/POOL tokens)^(1/t))\n    - */\n\n    uint _totalSupply = 10000;\n\n\n    function spotPrice(uint256 celoRatio, uint256 celoInReserve, uint256 totalInReserve) view public returns(uint256 spotPricecRES){\n        return ((celoRatio/100)/celoInReserve)/((1 - celoRatio)/(totalInReserve - celoInReserve));\n    }\n\n    function supply() view public returns(uint _totalSupply){\n        return _totalSupply;\n    }\n}\n\n\n\n////////////////// DATA FEED STUFF //////////////////\n\n\n\n// contract BTCAPIConsumer is ChainlinkClient{ \n//     /*\n//     parent: ChainlinkClient\n//     */\n//     uint256 public btcPrice; // price of btc\n\n//     address private oracle;\n//     bytes32 private jobId;\n//     uint256 private fee;\n\n//     constructor() public{\n//         setPublicChainlinkToken();\n\n//         oracle = 0xECcB8F881cE2552EdA4115a162ffE2666B601c33; // https://market.link/data-providers/eb5c92a8-6093-4657-9a68-a6d10719946e/integrations?network=1\n//         jobId = \"0391a670ba8e4a2f80750acfe65b0c89\";\n//         fee = .1 * 10**18; // fee of .1 LINK\n//     }\n\n//     function requestBTCPrice() public returns (bytes32 reqID){\n//         Chainlink.Request memory req = buildChainlinkRequest(jobId, address(this), this.fulfillBTC.selector);\n//         req.add(\"base\", \"BTC/USDT:CXDXF\");\n        \n//         return sendChainlinkRequestTo(oracle, req, fee);\n//     }\n\n//     function fulfillBTC(bytes32 _requestId, uint256 _btcPrice) public recordChainlinkFulfillment(_requestId){\n//         btcPrice = _btcPrice;\n//     }\n// }",
  "sourcePath": "/Users/kabirkapur/Desktop/cRes/contracts/cResToken.sol",
  "compiler": {
    "name": "solc",
    "version": "0.6.0+commit.26b70077.Emscripten.clang"
  },
  "schemaVersion": "3.4.1",
  "updatedAt": "2021-07-22T22:45:22.364Z",
  "devdoc": {
    "methods": {}
  },
  "userdoc": {
    "methods": {}
  }
}