{
  "contractName": "cResToken",
  "abi": [
    {
      "constant": false,
      "inputs": [],
      "name": "supply",
      "outputs": [],
      "payable": false,
      "stateMutability": "nonpayable",
      "type": "function"
    }
  ],
  "bytecode": "0x6080604052348015600f57600080fd5b50607580601d6000396000f3fe6080604052348015600f57600080fd5b506004361060285760003560e01c8063047fc9aa14602d575b600080fd5b60336035565b005b6000620f424090505056fea265627a7a7231582077991e06777e5951ed42dca9e227d42d1c315f328e66a4493f44ed6aa05fe63664736f6c63430005100032",
  "source": "pragma solidity ^0.5.16;\n\ncontract cResToken{\n    /*\n    NEED TO MAKE:\n    - constructor\n    - total # of tokens setter\n    - total # of tokens reader */\n    function supply() public {\n        uint256 totalSupply = 1000000;\n    }\n}",
  "sourcePath": "/Users/kabirkapur/Desktop/cRes/contracts/cResToken.sol",
  "compiler": {
    "name": "solc",
    "version": "0.5.16+commit.9c3226ce.Emscripten.clang"
  },
  "schemaVersion": "3.4.1",
  "updatedAt": "2021-07-16T07:04:33.622Z",
  "networkType": "ethereum",
  "devdoc": {
    "methods": {}
  },
  "userdoc": {
    "methods": {}
  }
}